{
  "_format": "hh-sol-artifact-1",
  "contractName": "MemeToken",
  "sourceName": "contracts/MemeToken.sol",
  "abi": [
    {
      "inputs": [
        {
          "internalType": "string",
          "name": "name",
          "type": "string"
        },
        {
          "internalType": "string",
          "name": "symbol",
          "type": "string"
        },
        {
          "internalType": "uint256",
          "name": "totalSupply",
          "type": "uint256"
        },
        {
          "internalType": "address",
          "name": "initialOwner",
          "type": "address"
        },
        {
          "internalType": "address",
          "name": "_treasury",
          "type": "address"
        }
      ],
      "stateMutability": "nonpayable",
      "type": "constructor"
    },
    {
      "inputs": [
        {
          "internalType": "address",
          "name": "spender",
          "type": "address"
        },
        {
          "internalType": "uint256",
          "name": "allowance",
          "type": "uint256"
        },
        {
          "internalType": "uint256",
          "name": "needed",
          "type": "uint256"
        }
      ],
      "name": "ERC20InsufficientAllowance",
      "type": "error"
    },
    {
      "inputs": [
        {
          "internalType": "address",
          "name": "sender",
          "type": "address"
        },
        {
          "internalType": "uint256",
          "name": "balance",
          "type": "uint256"
        },
        {
          "internalType": "uint256",
          "name": "needed",
          "type": "uint256"
        }
      ],
      "name": "ERC20InsufficientBalance",
      "type": "error"
    },
    {
      "inputs": [
        {
          "internalType": "address",
          "name": "approver",
          "type": "address"
        }
      ],
      "name": "ERC20InvalidApprover",
      "type": "error"
    },
    {
      "inputs": [
        {
          "internalType": "address",
          "name": "receiver",
          "type": "address"
        }
      ],
      "name": "ERC20InvalidReceiver",
      "type": "error"
    },
    {
      "inputs": [
        {
          "internalType": "address",
          "name": "sender",
          "type": "address"
        }
      ],
      "name": "ERC20InvalidSender",
      "type": "error"
    },
    {
      "inputs": [
        {
          "internalType": "address",
          "name": "spender",
          "type": "address"
        }
      ],
      "name": "ERC20InvalidSpender",
      "type": "error"
    },
    {
      "inputs": [
        {
          "internalType": "address",
          "name": "owner",
          "type": "address"
        }
      ],
      "name": "OwnableInvalidOwner",
      "type": "error"
    },
    {
      "inputs": [
        {
          "internalType": "address",
          "name": "account",
          "type": "address"
        }
      ],
      "name": "OwnableUnauthorizedAccount",
      "type": "error"
    },
    {
      "anonymous": false,
      "inputs": [
        {
          "indexed": true,
          "internalType": "address",
          "name": "owner",
          "type": "address"
        },
        {
          "indexed": true,
          "internalType": "address",
          "name": "spender",
          "type": "address"
        },
        {
          "indexed": false,
          "internalType": "uint256",
          "name": "value",
          "type": "uint256"
        }
      ],
      "name": "Approval",
      "type": "event"
    },
    {
      "anonymous": false,
      "inputs": [
        {
          "indexed": true,
          "internalType": "address",
          "name": "pool",
          "type": "address"
        }
      ],
      "name": "LiquidityPoolSet",
      "type": "event"
    },
    {
      "anonymous": false,
      "inputs": [
        {
          "indexed": true,
          "internalType": "address",
          "name": "previousOwner",
          "type": "address"
        },
        {
          "indexed": true,
          "internalType": "address",
          "name": "newOwner",
          "type": "address"
        }
      ],
      "name": "OwnershipTransferred",
      "type": "event"
    },
    {
      "anonymous": false,
      "inputs": [
        {
          "indexed": false,
          "internalType": "uint256",
          "name": "newBuyTax",
          "type": "uint256"
        },
        {
          "indexed": false,
          "internalType": "uint256",
          "name": "newSellTax",
          "type": "uint256"
        }
      ],
      "name": "TaxUpdated",
      "type": "event"
    },
    {
      "anonymous": false,
      "inputs": [
        {
          "indexed": false,
          "internalType": "uint256",
          "name": "maxPercent",
          "type": "uint256"
        },
        {
          "indexed": false,
          "internalType": "uint256",
          "name": "dailyMax",
          "type": "uint256"
        }
      ],
      "name": "TransactionLimitUpdated",
      "type": "event"
    },
    {
      "anonymous": false,
      "inputs": [
        {
          "indexed": true,
          "internalType": "address",
          "name": "from",
          "type": "address"
        },
        {
          "indexed": true,
          "internalType": "address",
          "name": "to",
          "type": "address"
        },
        {
          "indexed": false,
          "internalType": "uint256",
          "name": "value",
          "type": "uint256"
        }
      ],
      "name": "Transfer",
      "type": "event"
    },
    {
      "inputs": [],
      "name": "TAX_DENOMINATOR",
      "outputs": [
        {
          "internalType": "uint256",
          "name": "",
          "type": "uint256"
        }
      ],
      "stateMutability": "view",
      "type": "function"
    },
    {
      "inputs": [
        {
          "internalType": "address",
          "name": "owner",
          "type": "address"
        },
        {
          "internalType": "address",
          "name": "spender",
          "type": "address"
        }
      ],
      "name": "allowance",
      "outputs": [
        {
          "internalType": "uint256",
          "name": "",
          "type": "uint256"
        }
      ],
      "stateMutability": "view",
      "type": "function"
    },
    {
      "inputs": [
        {
          "internalType": "address",
          "name": "spender",
          "type": "address"
        },
        {
          "internalType": "uint256",
          "name": "value",
          "type": "uint256"
        }
      ],
      "name": "approve",
      "outputs": [
        {
          "internalType": "bool",
          "name": "",
          "type": "bool"
        }
      ],
      "stateMutability": "nonpayable",
      "type": "function"
    },
    {
      "inputs": [
        {
          "internalType": "address",
          "name": "account",
          "type": "address"
        }
      ],
      "name": "balanceOf",
      "outputs": [
        {
          "internalType": "uint256",
          "name": "",
          "type": "uint256"
        }
      ],
      "stateMutability": "view",
      "type": "function"
    },
    {
      "inputs": [],
      "name": "buyTax",
      "outputs": [
        {
          "internalType": "uint256",
          "name": "",
          "type": "uint256"
        }
      ],
      "stateMutability": "view",
      "type": "function"
    },
    {
      "inputs": [],
      "name": "dailyMaxTransactions",
      "outputs": [
        {
          "internalType": "uint256",
          "name": "",
          "type": "uint256"
        }
      ],
      "stateMutability": "view",
      "type": "function"
    },
    {
      "inputs": [
        {
          "internalType": "address",
          "name": "",
          "type": "address"
        }
      ],
      "name": "dailyTransactions",
      "outputs": [
        {
          "internalType": "uint256",
          "name": "",
          "type": "uint256"
        }
      ],
      "stateMutability": "view",
      "type": "function"
    },
    {
      "inputs": [],
      "name": "decimals",
      "outputs": [
        {
          "internalType": "uint8",
          "name": "",
          "type": "uint8"
        }
      ],
      "stateMutability": "view",
      "type": "function"
    },
    {
      "inputs": [
        {
          "internalType": "address",
          "name": "",
          "type": "address"
        }
      ],
      "name": "lastTransactionDay",
      "outputs": [
        {
          "internalType": "uint256",
          "name": "",
          "type": "uint256"
        }
      ],
      "stateMutability": "view",
      "type": "function"
    },
    {
      "inputs": [],
      "name": "liquidityPool",
      "outputs": [
        {
          "internalType": "address",
          "name": "",
          "type": "address"
        }
      ],
      "stateMutability": "view",
      "type": "function"
    },
    {
      "inputs": [],
      "name": "maxTransactionPercent",
      "outputs": [
        {
          "internalType": "uint256",
          "name": "",
          "type": "uint256"
        }
      ],
      "stateMutability": "view",
      "type": "function"
    },
    {
      "inputs": [],
      "name": "name",
      "outputs": [
        {
          "internalType": "string",
          "name": "",
          "type": "string"
        }
      ],
      "stateMutability": "view",
      "type": "function"
    },
    {
      "inputs": [],
      "name": "owner",
      "outputs": [
        {
          "internalType": "address",
          "name": "",
          "type": "address"
        }
      ],
      "stateMutability": "view",
      "type": "function"
    },
    {
      "inputs": [],
      "name": "renounceOwnership",
      "outputs": [],
      "stateMutability": "nonpayable",
      "type": "function"
    },
    {
      "inputs": [],
      "name": "sellTax",
      "outputs": [
        {
          "internalType": "uint256",
          "name": "",
          "type": "uint256"
        }
      ],
      "stateMutability": "view",
      "type": "function"
    },
    {
      "inputs": [
        {
          "internalType": "address",
          "name": "_pool",
          "type": "address"
        }
      ],
      "name": "setLiquidityPool",
      "outputs": [],
      "stateMutability": "nonpayable",
      "type": "function"
    },
    {
      "inputs": [],
      "name": "symbol",
      "outputs": [
        {
          "internalType": "string",
          "name": "",
          "type": "string"
        }
      ],
      "stateMutability": "view",
      "type": "function"
    },
    {
      "inputs": [],
      "name": "totalSupply",
      "outputs": [
        {
          "internalType": "uint256",
          "name": "",
          "type": "uint256"
        }
      ],
      "stateMutability": "view",
      "type": "function"
    },
    {
      "inputs": [
        {
          "internalType": "address",
          "name": "recipient",
          "type": "address"
        },
        {
          "internalType": "uint256",
          "name": "amount",
          "type": "uint256"
        }
      ],
      "name": "transfer",
      "outputs": [
        {
          "internalType": "bool",
          "name": "",
          "type": "bool"
        }
      ],
      "stateMutability": "nonpayable",
      "type": "function"
    },
    {
      "inputs": [
        {
          "internalType": "address",
          "name": "from",
          "type": "address"
        },
        {
          "internalType": "address",
          "name": "to",
          "type": "address"
        },
        {
          "internalType": "uint256",
          "name": "value",
          "type": "uint256"
        }
      ],
      "name": "transferFrom",
      "outputs": [
        {
          "internalType": "bool",
          "name": "",
          "type": "bool"
        }
      ],
      "stateMutability": "nonpayable",
      "type": "function"
    },
    {
      "inputs": [
        {
          "internalType": "address",
          "name": "newOwner",
          "type": "address"
        }
      ],
      "name": "transferOwnership",
      "outputs": [],
      "stateMutability": "nonpayable",
      "type": "function"
    },
    {
      "inputs": [],
      "name": "treasury",
      "outputs": [
        {
          "internalType": "address",
          "name": "",
          "type": "address"
        }
      ],
      "stateMutability": "view",
      "type": "function"
    },
    {
      "inputs": [
        {
          "internalType": "uint256",
          "name": "_buyTax",
          "type": "uint256"
        },
        {
          "internalType": "uint256",
          "name": "_sellTax",
          "type": "uint256"
        }
      ],
      "name": "updateTaxes",
      "outputs": [],
      "stateMutability": "nonpayable",
      "type": "function"
    },
    {
      "inputs": [
        {
          "internalType": "uint256",
          "name": "_maxPercent",
          "type": "uint256"
        },
        {
          "internalType": "uint256",
          "name": "_dailyMax",
          "type": "uint256"
        }
      ],
      "name": "updateTransactionLimits",
      "outputs": [],
      "stateMutability": "nonpayable",
      "type": "function"
    }
  ],
  "bytecode": "0x60806040526101f46006556103e86007556064600a55600a600b5534801561002657600080fd5b50604051612ad3380380612ad3833981810160405281019061004891906106f3565b818585816003908161005a91906109bd565b50806004908161006a91906109bd565b505050600073ffffffffffffffffffffffffffffffffffffffff168173ffffffffffffffffffffffffffffffffffffffff16036100df5760006040517f1e4fbdf70000000000000000000000000000000000000000000000000000000081526004016100d69190610a9e565b60405180910390fd5b6100ee8161016e60201b60201c565b506101238261010161023460201b60201c565b600a61010d9190610c28565b856101189190610c73565b61023d60201b60201c565b80600960006101000a81548173ffffffffffffffffffffffffffffffffffffffff021916908373ffffffffffffffffffffffffffffffffffffffff1602179055505050505050610d4a565b6000600560009054906101000a900473ffffffffffffffffffffffffffffffffffffffff16905081600560006101000a81548173ffffffffffffffffffffffffffffffffffffffff021916908373ffffffffffffffffffffffffffffffffffffffff1602179055508173ffffffffffffffffffffffffffffffffffffffff168173ffffffffffffffffffffffffffffffffffffffff167f8be0079c531659141344cd1fd0a4f28419497f9722a3daafe3b4186f6b6457e060405160405180910390a35050565b60006012905090565b600073ffffffffffffffffffffffffffffffffffffffff168273ffffffffffffffffffffffffffffffffffffffff16036102af5760006040517fec442f050000000000000000000000000000000000000000000000000000000081526004016102a69190610a9e565b60405180910390fd5b6102c1600083836102c560201b60201c565b5050565b600073ffffffffffffffffffffffffffffffffffffffff168373ffffffffffffffffffffffffffffffffffffffff160361031757806002600082825461030b9190610cb5565b925050819055506103ea565b60008060008573ffffffffffffffffffffffffffffffffffffffff1673ffffffffffffffffffffffffffffffffffffffff168152602001908152602001600020549050818110156103a3578381836040517fe450d38c00000000000000000000000000000000000000000000000000000000815260040161039a93929190610cf8565b60405180910390fd5b8181036000808673ffffffffffffffffffffffffffffffffffffffff1673ffffffffffffffffffffffffffffffffffffffff16815260200190815260200160002081905550505b600073ffffffffffffffffffffffffffffffffffffffff168273ffffffffffffffffffffffffffffffffffffffff16036104335780600260008282540392505081905550610480565b806000808473ffffffffffffffffffffffffffffffffffffffff1673ffffffffffffffffffffffffffffffffffffffff168152602001908152602001600020600082825401925050819055505b8173ffffffffffffffffffffffffffffffffffffffff168373ffffffffffffffffffffffffffffffffffffffff167fddf252ad1be2c89b69c2b068fc378daa952ba7f163c4a11628f55a4df523b3ef836040516104dd9190610d2f565b60405180910390a3505050565b6000604051905090565b600080fd5b600080fd5b600080fd5b600080fd5b6000601f19601f8301169050919050565b7f4e487b7100000000000000000000000000000000000000000000000000000000600052604160045260246000fd5b61055182610508565b810181811067ffffffffffffffff821117156105705761056f610519565b5b80604052505050565b60006105836104ea565b905061058f8282610548565b919050565b600067ffffffffffffffff8211156105af576105ae610519565b5b6105b882610508565b9050602081019050919050565b60005b838110156105e35780820151818401526020810190506105c8565b60008484015250505050565b60006106026105fd84610594565b610579565b90508281526020810184848401111561061e5761061d610503565b5b6106298482856105c5565b509392505050565b600082601f830112610646576106456104fe565b5b81516106568482602086016105ef565b91505092915050565b6000819050919050565b6106728161065f565b811461067d57600080fd5b50565b60008151905061068f81610669565b92915050565b600073ffffffffffffffffffffffffffffffffffffffff82169050919050565b60006106c082610695565b9050919050565b6106d0816106b5565b81146106db57600080fd5b50565b6000815190506106ed816106c7565b92915050565b600080600080600060a0868803121561070f5761070e6104f4565b5b600086015167ffffffffffffffff81111561072d5761072c6104f9565b5b61073988828901610631565b955050602086015167ffffffffffffffff81111561075a576107596104f9565b5b61076688828901610631565b945050604061077788828901610680565b9350506060610788888289016106de565b9250506080610799888289016106de565b9150509295509295909350565b600081519050919050565b7f4e487b7100000000000000000000000000000000000000000000000000000000600052602260045260246000fd5b600060028204905060018216806107f857607f821691505b60208210810361080b5761080a6107b1565b5b50919050565b60008190508160005260206000209050919050565b60006020601f8301049050919050565b600082821b905092915050565b6000600883026108737fffffffffffffffffffffffffffffffffffffffffffffffffffffffffffffffff82610836565b61087d8683610836565b95508019841693508086168417925050509392505050565b6000819050919050565b60006108ba6108b56108b08461065f565b610895565b61065f565b9050919050565b6000819050919050565b6108d48361089f565b6108e86108e0826108c1565b848454610843565b825550505050565b600090565b6108fd6108f0565b6109088184846108cb565b505050565b5b8181101561092c576109216000826108f5565b60018101905061090e565b5050565b601f8211156109715761094281610811565b61094b84610826565b8101602085101561095a578190505b61096e61096685610826565b83018261090d565b50505b505050565b600082821c905092915050565b600061099460001984600802610976565b1980831691505092915050565b60006109ad8383610983565b9150826002028217905092915050565b6109c6826107a6565b67ffffffffffffffff8111156109df576109de610519565b5b6109e982546107e0565b6109f4828285610930565b600060209050601f831160018114610a275760008415610a15578287015190505b610a1f85826109a1565b865550610a87565b601f198416610a3586610811565b60005b82811015610a5d57848901518255600182019150602085019450602081019050610a38565b86831015610a7a5784890151610a76601f891682610983565b8355505b6001600288020188555050505b505050505050565b610a98816106b5565b82525050565b6000602082019050610ab36000830184610a8f565b92915050565b7f4e487b7100000000000000000000000000000000000000000000000000000000600052601160045260246000fd5b60008160011c9050919050565b6000808291508390505b6001851115610b3f57808604811115610b1b57610b1a610ab9565b5b6001851615610b2a5780820291505b8081029050610b3885610ae8565b9450610aff565b94509492505050565b600082610b585760019050610c14565b81610b665760009050610c14565b8160018114610b7c5760028114610b8657610bb5565b6001915050610c14565b60ff841115610b9857610b97610ab9565b5b8360020a915084821115610baf57610bae610ab9565b5b50610c14565b5060208310610133831016604e8410600b8410161715610bea5782820a905083811115610be557610be4610ab9565b5b610c14565b610bf78484846001610af5565b92509050818404811115610c0e57610c0d610ab9565b5b81810290505b9392505050565b600060ff82169050919050565b6000610c338261065f565b9150610c3e83610c1b565b9250610c6b7fffffffffffffffffffffffffffffffffffffffffffffffffffffffffffffffff8484610b48565b905092915050565b6000610c7e8261065f565b9150610c898361065f565b9250828202610c978161065f565b91508282048414831517610cae57610cad610ab9565b5b5092915050565b6000610cc08261065f565b9150610ccb8361065f565b9250828201905080821115610ce357610ce2610ab9565b5b92915050565b610cf28161065f565b82525050565b6000606082019050610d0d6000830186610a8f565b610d1a6020830185610ce9565b610d276040830184610ce9565b949350505050565b6000602082019050610d446000830184610ce9565b92915050565b611d7a80610d596000396000f3fe608060405234801561001057600080fd5b50600436106101585760003560e01c8063715018a6116100c3578063a9059cbb1161007c578063a9059cbb146103a7578063ad609646146103d7578063af59c95f146103f5578063cc1776d314610425578063dd62ed3e14610443578063f2fde38b1461047357610158565b8063715018a6146102f757806376dabfdb146103015780637ebb640a146103315780638da5cb5b1461034d57806395d89b411461036b578063a51c9ace1461038957610158565b806323b872dd1161011557806323b872dd1461021f578063313ce5671461024f5780634f7041a51461026d57806361d027b31461028b578063665a11ca146102a957806370a08231146102c757610158565b8063018770201461015d57806306fdde031461017957806307b01adb14610197578063095ea7b3146101b55780631006ee0c146101e557806318160ddd14610201575b600080fd5b6101776004803603810190610172919061166a565b61048f565b005b61018161051e565b60405161018e9190611727565b60405180910390f35b61019f6105b0565b6040516101ac9190611762565b60405180910390f35b6101cf60048036038101906101ca91906117a9565b6105b6565b6040516101dc9190611804565b60405180910390f35b6101ff60048036038101906101fa919061181f565b6105d9565b005b61020961067f565b6040516102169190611762565b60405180910390f35b6102396004803603810190610234919061185f565b610689565b6040516102469190611804565b60405180910390f35b6102576106b8565b60405161026491906118ce565b60405180910390f35b6102756106c1565b6040516102829190611762565b60405180910390f35b6102936106c7565b6040516102a091906118f8565b60405180910390f35b6102b16106ed565b6040516102be91906118f8565b60405180910390f35b6102e160048036038101906102dc919061166a565b610713565b6040516102ee9190611762565b60405180910390f35b6102ff61075b565b005b61031b6004803603810190610316919061166a565b61076f565b6040516103289190611762565b60405180910390f35b61034b6004803603810190610346919061181f565b610787565b005b61035561081f565b60405161036291906118f8565b60405180910390f35b610373610849565b6040516103809190611727565b60405180910390f35b6103916108db565b60405161039e9190611762565b60405180910390f35b6103c160048036038101906103bc91906117a9565b6108e1565b6040516103ce9190611804565b60405180910390f35b6103df610953565b6040516103ec9190611762565b60405180910390f35b61040f600480360381019061040a919061166a565b610959565b60405161041c9190611762565b60405180910390f35b61042d610971565b60405161043a9190611762565b60405180910390f35b61045d60048036038101906104589190611913565b610977565b60405161046a9190611762565b60405180910390f35b61048d6004803603810190610488919061166a565b6109fe565b005b610497610a84565b80600860006101000a81548173ffffffffffffffffffffffffffffffffffffffff021916908373ffffffffffffffffffffffffffffffffffffffff1602179055508073ffffffffffffffffffffffffffffffffffffffff167fe57f71636571365571c0eaeaeb54e1d9e0065804f056a57a2a29448524f7d18a60405160405180910390a250565b60606003805461052d90611982565b80601f016020809104026020016040519081016040528092919081815260200182805461055990611982565b80156105a65780601f1061057b576101008083540402835291602001916105a6565b820191906000526020600020905b81548152906001019060200180831161058957829003601f168201915b5050505050905090565b600b5481565b6000806105c1610b0b565b90506105ce818585610b13565b600191505092915050565b6105e1610a84565b6107d082111580156105f55750610bb88111155b610634576040517f08c379a000000000000000000000000000000000000000000000000000000000815260040161062b906119ff565b60405180910390fd5b81600681905550806007819055507fb841faf0d1b32571f4ef966a2f35e3ae51f3cdda45318c3da5570a5b2ad856058282604051610673929190611a1f565b60405180910390a15050565b6000600254905090565b600080610694610b0b565b90506106a1858285610b25565b6106ac858585610bba565b60019150509392505050565b60006012905090565b60065481565b600960009054906101000a900473ffffffffffffffffffffffffffffffffffffffff1681565b600860009054906101000a900473ffffffffffffffffffffffffffffffffffffffff1681565b60008060008373ffffffffffffffffffffffffffffffffffffffff1673ffffffffffffffffffffffffffffffffffffffff168152602001908152602001600020549050919050565b610763610a84565b61076d6000610cae565b565b600c6020528060005260406000206000915090505481565b61078f610a84565b6101f48211156107d4576040517f08c379a00000000000000000000000000000000000000000000000000000000081526004016107cb90611a94565b60405180910390fd5b81600a8190555080600b819055507f0ed166407696d0f463c315602b11865dcca4c099e9676223521cab7afa90df328282604051610813929190611a1f565b60405180910390a15050565b6000600560009054906101000a900473ffffffffffffffffffffffffffffffffffffffff16905090565b60606004805461085890611982565b80601f016020809104026020016040519081016040528092919081815260200182805461088490611982565b80156108d15780601f106108a6576101008083540402835291602001916108d1565b820191906000526020600020905b8154815290600101906020018083116108b457829003601f168201915b5050505050905090565b61271081565b60006108f46108ee610b0b565b83610d74565b6000610908610901610b0b565b8585610f9e565b9050600081846109189190611ae3565b905061092c610925610b0b565b8683610bba565b60008211156109475761094682610941610b0b565b6110a8565b5b60019250505092915050565b600a5481565b600d6020528060005260406000206000915090505481565b60075481565b6000600160008473ffffffffffffffffffffffffffffffffffffffff1673ffffffffffffffffffffffffffffffffffffffff16815260200190815260200160002060008373ffffffffffffffffffffffffffffffffffffffff1673ffffffffffffffffffffffffffffffffffffffff16815260200190815260200160002054905092915050565b610a06610a84565b600073ffffffffffffffffffffffffffffffffffffffff168173ffffffffffffffffffffffffffffffffffffffff1603610a785760006040517f1e4fbdf7000000000000000000000000000000000000000000000000000000008152600401610a6f91906118f8565b60405180910390fd5b610a8181610cae565b50565b610a8c610b0b565b73ffffffffffffffffffffffffffffffffffffffff16610aaa61081f565b73ffffffffffffffffffffffffffffffffffffffff1614610b0957610acd610b0b565b6040517f118cdaa7000000000000000000000000000000000000000000000000000000008152600401610b0091906118f8565b60405180910390fd5b565b600033905090565b610b20838383600161120b565b505050565b6000610b318484610977565b90507fffffffffffffffffffffffffffffffffffffffffffffffffffffffffffffffff811015610bb45781811015610ba4578281836040517ffb8f41b2000000000000000000000000000000000000000000000000000000008152600401610b9b93929190611b17565b60405180910390fd5b610bb38484848403600061120b565b5b50505050565b600073ffffffffffffffffffffffffffffffffffffffff168373ffffffffffffffffffffffffffffffffffffffff1603610c2c5760006040517f96c6fd1e000000000000000000000000000000000000000000000000000000008152600401610c2391906118f8565b60405180910390fd5b600073ffffffffffffffffffffffffffffffffffffffff168273ffffffffffffffffffffffffffffffffffffffff1603610c9e5760006040517fec442f05000000000000000000000000000000000000000000000000000000008152600401610c9591906118f8565b60405180910390fd5b610ca98383836113e2565b505050565b6000600560009054906101000a900473ffffffffffffffffffffffffffffffffffffffff16905081600560006101000a81548173ffffffffffffffffffffffffffffffffffffffff021916908373ffffffffffffffffffffffffffffffffffffffff1602179055508173ffffffffffffffffffffffffffffffffffffffff168173ffffffffffffffffffffffffffffffffffffffff167f8be0079c531659141344cd1fd0a4f28419497f9722a3daafe3b4186f6b6457e060405160405180910390a35050565b6000612710600a54610d8461067f565b610d8e9190611b4e565b610d989190611bbf565b905080821115610ddd576040517f08c379a0000000000000000000000000000000000000000000000000000000008152600401610dd490611c3c565b60405180910390fd5b60006201518042610dee9190611bbf565b905080600d60008673ffffffffffffffffffffffffffffffffffffffff1673ffffffffffffffffffffffffffffffffffffffff1681526020019081526020016000205414610ec0576000600c60008673ffffffffffffffffffffffffffffffffffffffff1673ffffffffffffffffffffffffffffffffffffffff1681526020019081526020016000208190555080600d60008673ffffffffffffffffffffffffffffffffffffffff1673ffffffffffffffffffffffffffffffffffffffff168152602001908152602001600020819055505b600b54600c60008673ffffffffffffffffffffffffffffffffffffffff1673ffffffffffffffffffffffffffffffffffffffff1681526020019081526020016000205410610f43576040517f08c379a0000000000000000000000000000000000000000000000000000000008152600401610f3a90611ca8565b60405180910390fd5b600c60008573ffffffffffffffffffffffffffffffffffffffff1673ffffffffffffffffffffffffffffffffffffffff1681526020019081526020016000206000815480929190610f9390611cc8565b919050555050505050565b600080600860009054906101000a900473ffffffffffffffffffffffffffffffffffffffff1673ffffffffffffffffffffffffffffffffffffffff168473ffffffffffffffffffffffffffffffffffffffff161490506000600860009054906101000a900473ffffffffffffffffffffffffffffffffffffffff1673ffffffffffffffffffffffffffffffffffffffff168673ffffffffffffffffffffffffffffffffffffffff16149050811561107157612710600754856110609190611b4e565b61106a9190611bbf565b925061109f565b801561109957612710600654856110889190611b4e565b6110929190611bbf565b925061109e565b600092505b5b50509392505050565b6000820315611207576000612710611388846110c49190611b4e565b6110ce9190611bbf565b9050600081846110de9190611ae3565b905060008211801561113f5750600073ffffffffffffffffffffffffffffffffffffffff16600960009054906101000a900473ffffffffffffffffffffffffffffffffffffffff1673ffffffffffffffffffffffffffffffffffffffff1614155b156111725761117183600960009054906101000a900473ffffffffffffffffffffffffffffffffffffffff1684610bba565b5b6000811180156111d15750600073ffffffffffffffffffffffffffffffffffffffff16600860009054906101000a900473ffffffffffffffffffffffffffffffffffffffff1673ffffffffffffffffffffffffffffffffffffffff1614155b156112045761120383600860009054906101000a900473ffffffffffffffffffffffffffffffffffffffff1683610bba565b5b50505b5050565b600073ffffffffffffffffffffffffffffffffffffffff168473ffffffffffffffffffffffffffffffffffffffff160361127d5760006040517fe602df0500000000000000000000000000000000000000000000000000000000815260040161127491906118f8565b60405180910390fd5b600073ffffffffffffffffffffffffffffffffffffffff168373ffffffffffffffffffffffffffffffffffffffff16036112ef5760006040517f94280d620000000000000000000000000000000000000000000000000000000081526004016112e691906118f8565b60405180910390fd5b81600160008673ffffffffffffffffffffffffffffffffffffffff1673ffffffffffffffffffffffffffffffffffffffff16815260200190815260200160002060008573ffffffffffffffffffffffffffffffffffffffff1673ffffffffffffffffffffffffffffffffffffffff1681526020019081526020016000208190555080156113dc578273ffffffffffffffffffffffffffffffffffffffff168473ffffffffffffffffffffffffffffffffffffffff167f8c5be1e5ebec7d5bd14f71427d1e84f3dd0314c0f7b2291e5b200ac8c7c3b925846040516113d39190611762565b60405180910390a35b50505050565b600073ffffffffffffffffffffffffffffffffffffffff168373ffffffffffffffffffffffffffffffffffffffff16036114345780600260008282546114289190611d10565b92505081905550611507565b60008060008573ffffffffffffffffffffffffffffffffffffffff1673ffffffffffffffffffffffffffffffffffffffff168152602001908152602001600020549050818110156114c0578381836040517fe450d38c0000000000000000000000000000000000000000000000000000000081526004016114b793929190611b17565b60405180910390fd5b8181036000808673ffffffffffffffffffffffffffffffffffffffff1673ffffffffffffffffffffffffffffffffffffffff16815260200190815260200160002081905550505b600073ffffffffffffffffffffffffffffffffffffffff168273ffffffffffffffffffffffffffffffffffffffff1603611550578060026000828254039250508190555061159d565b806000808473ffffffffffffffffffffffffffffffffffffffff1673ffffffffffffffffffffffffffffffffffffffff168152602001908152602001600020600082825401925050819055505b8173ffffffffffffffffffffffffffffffffffffffff168373ffffffffffffffffffffffffffffffffffffffff167fddf252ad1be2c89b69c2b068fc378daa952ba7f163c4a11628f55a4df523b3ef836040516115fa9190611762565b60405180910390a3505050565b600080fd5b600073ffffffffffffffffffffffffffffffffffffffff82169050919050565b60006116378261160c565b9050919050565b6116478161162c565b811461165257600080fd5b50565b6000813590506116648161163e565b92915050565b6000602082840312156116805761167f611607565b5b600061168e84828501611655565b91505092915050565b600081519050919050565b600082825260208201905092915050565b60005b838110156116d15780820151818401526020810190506116b6565b60008484015250505050565b6000601f19601f8301169050919050565b60006116f982611697565b61170381856116a2565b93506117138185602086016116b3565b61171c816116dd565b840191505092915050565b6000602082019050818103600083015261174181846116ee565b905092915050565b6000819050919050565b61175c81611749565b82525050565b60006020820190506117776000830184611753565b92915050565b61178681611749565b811461179157600080fd5b50565b6000813590506117a38161177d565b92915050565b600080604083850312156117c0576117bf611607565b5b60006117ce85828601611655565b92505060206117df85828601611794565b9150509250929050565b60008115159050919050565b6117fe816117e9565b82525050565b600060208201905061181960008301846117f5565b92915050565b6000806040838503121561183657611835611607565b5b600061184485828601611794565b925050602061185585828601611794565b9150509250929050565b60008060006060848603121561187857611877611607565b5b600061188686828701611655565b935050602061189786828701611655565b92505060406118a886828701611794565b9150509250925092565b600060ff82169050919050565b6118c8816118b2565b82525050565b60006020820190506118e360008301846118bf565b92915050565b6118f28161162c565b82525050565b600060208201905061190d60008301846118e9565b92915050565b6000806040838503121561192a57611929611607565b5b600061193885828601611655565b925050602061194985828601611655565b9150509250929050565b7f4e487b7100000000000000000000000000000000000000000000000000000000600052602260045260246000fd5b6000600282049050600182168061199a57607f821691505b6020821081036119ad576119ac611953565b5b50919050565b7f54617820746f6f20686967680000000000000000000000000000000000000000600082015250565b60006119e9600c836116a2565b91506119f4826119b3565b602082019050919050565b60006020820190508181036000830152611a18816119dc565b9050919050565b6000604082019050611a346000830185611753565b611a416020830184611753565b9392505050565b7f4d61782070657263656e7420746f6f2068696768000000000000000000000000600082015250565b6000611a7e6014836116a2565b9150611a8982611a48565b602082019050919050565b60006020820190508181036000830152611aad81611a71565b9050919050565b7f4e487b7100000000000000000000000000000000000000000000000000000000600052601160045260246000fd5b6000611aee82611749565b9150611af983611749565b9250828203905081811115611b1157611b10611ab4565b5b92915050565b6000606082019050611b2c60008301866118e9565b611b396020830185611753565b611b466040830184611753565b949350505050565b6000611b5982611749565b9150611b6483611749565b9250828202611b7281611749565b91508282048414831517611b8957611b88611ab4565b5b5092915050565b7f4e487b7100000000000000000000000000000000000000000000000000000000600052601260045260246000fd5b6000611bca82611749565b9150611bd583611749565b925082611be557611be4611b90565b5b828204905092915050565b7f45786365656473206d6178207472616e73616374696f6e20616d6f756e740000600082015250565b6000611c26601e836116a2565b9150611c3182611bf0565b602082019050919050565b60006020820190508181036000830152611c5581611c19565b9050919050565b7f45786365656473206461696c79207472616e73616374696f6e206c696d697400600082015250565b6000611c92601f836116a2565b9150611c9d82611c5c565b602082019050919050565b60006020820190508181036000830152611cc181611c85565b9050919050565b6000611cd382611749565b91507fffffffffffffffffffffffffffffffffffffffffffffffffffffffffffffffff8203611d0557611d04611ab4565b5b600182019050919050565b6000611d1b82611749565b9150611d2683611749565b9250828201905080821115611d3e57611d3d611ab4565b5b9291505056fea2646970667358221220916a624fcd550a696aaea9af8d6a0dfd3c5ae0d87053bd058d6fce38ef91d98364736f6c634300081c0033",
  "linkReferences": {},
  "deployedLinkReferences": {}
}