{
  "contracts/MemeToken.sol": {
    "MemeToken": {
      "abi": [
        {
          "inputs": [
            {
              "internalType": "string",
              "name": "name",
              "type": "string"
            },
            {
              "internalType": "string",
              "name": "symbol",
              "type": "string"
            },
            {
              "internalType": "uint256",
              "name": "totalSupply",
              "type": "uint256"
            },
            {
              "internalType": "address",
              "name": "initialOwner",
              "type": "address"
            },
            {
              "internalType": "address",
              "name": "_treasury",
              "type": "address"
            }
          ],
          "stateMutability": "nonpayable",
          "type": "constructor"
        },
        {
          "inputs": [
            {
              "internalType": "address",
              "name": "spender",
              "type": "address"
            },
            {
              "internalType": "uint256",
              "name": "allowance",
              "type": "uint256"
            },
            {
              "internalType": "uint256",
              "name": "needed",
              "type": "uint256"
            }
          ],
          "name": "ERC20InsufficientAllowance",
          "type": "error"
        },
        {
          "inputs": [
            {
              "internalType": "address",
              "name": "sender",
              "type": "address"
            },
            {
              "internalType": "uint256",
              "name": "balance",
              "type": "uint256"
            },
            {
              "internalType": "uint256",
              "name": "needed",
              "type": "uint256"
            }
          ],
          "name": "ERC20InsufficientBalance",
          "type": "error"
        },
        {
          "inputs": [
            {
              "internalType": "address",
              "name": "approver",
              "type": "address"
            }
          ],
          "name": "ERC20InvalidApprover",
          "type": "error"
        },
        {
          "inputs": [
            {
              "internalType": "address",
              "name": "receiver",
              "type": "address"
            }
          ],
          "name": "ERC20InvalidReceiver",
          "type": "error"
        },
        {
          "inputs": [
            {
              "internalType": "address",
              "name": "sender",
              "type": "address"
            }
          ],
          "name": "ERC20InvalidSender",
          "type": "error"
        },
        {
          "inputs": [
            {
              "internalType": "address",
              "name": "spender",
              "type": "address"
            }
          ],
          "name": "ERC20InvalidSpender",
          "type": "error"
        },
        {
          "inputs": [
            {
              "internalType": "address",
              "name": "owner",
              "type": "address"
            }
          ],
          "name": "OwnableInvalidOwner",
          "type": "error"
        },
        {
          "inputs": [
            {
              "internalType": "address",
              "name": "account",
              "type": "address"
            }
          ],
          "name": "OwnableUnauthorizedAccount",
          "type": "error"
        },
        {
          "anonymous": false,
          "inputs": [
            {
              "indexed": true,
              "internalType": "address",
              "name": "owner",
              "type": "address"
            },
            {
              "indexed": true,
              "internalType": "address",
              "name": "spender",
              "type": "address"
            },
            {
              "indexed": false,
              "internalType": "uint256",
              "name": "value",
              "type": "uint256"
            }
          ],
          "name": "Approval",
          "type": "event"
        },
        {
          "anonymous": false,
          "inputs": [
            {
              "indexed": true,
              "internalType": "address",
              "name": "pool",
              "type": "address"
            }
          ],
          "name": "LiquidityPoolSet",
          "type": "event"
        },
        {
          "anonymous": false,
          "inputs": [
            {
              "indexed": true,
              "internalType": "address",
              "name": "previousOwner",
              "type": "address"
            },
            {
              "indexed": true,
              "internalType": "address",
              "name": "newOwner",
              "type": "address"
            }
          ],
          "name": "OwnershipTransferred",
          "type": "event"
        },
        {
          "anonymous": false,
          "inputs": [
            {
              "indexed": false,
              "internalType": "uint256",
              "name": "newBuyTax",
              "type": "uint256"
            },
            {
              "indexed": false,
              "internalType": "uint256",
              "name": "newSellTax",
              "type": "uint256"
            }
          ],
          "name": "TaxUpdated",
          "type": "event"
        },
        {
          "anonymous": false,
          "inputs": [
            {
              "indexed": false,
              "internalType": "uint256",
              "name": "maxPercent",
              "type": "uint256"
            },
            {
              "indexed": false,
              "internalType": "uint256",
              "name": "dailyMax",
              "type": "uint256"
            }
          ],
          "name": "TransactionLimitUpdated",
          "type": "event"
        },
        {
          "anonymous": false,
          "inputs": [
            {
              "indexed": true,
              "internalType": "address",
              "name": "from",
              "type": "address"
            },
            {
              "indexed": true,
              "internalType": "address",
              "name": "to",
              "type": "address"
            },
            {
              "indexed": false,
              "internalType": "uint256",
              "name": "value",
              "type": "uint256"
            }
          ],
          "name": "Transfer",
          "type": "event"
        },
        {
          "inputs": [],
          "name": "TAX_DENOMINATOR",
          "outputs": [
            {
              "internalType": "uint256",
              "name": "",
              "type": "uint256"
            }
          ],
          "stateMutability": "view",
          "type": "function"
        },
        {
          "inputs": [
            {
              "internalType": "address",
              "name": "owner",
              "type": "address"
            },
            {
              "internalType": "address",
              "name": "spender",
              "type": "address"
            }
          ],
          "name": "allowance",
          "outputs": [
            {
              "internalType": "uint256",
              "name": "",
              "type": "uint256"
            }
          ],
          "stateMutability": "view",
          "type": "function"
        },
        {
          "inputs": [
            {
              "internalType": "address",
              "name": "spender",
              "type": "address"
            },
            {
              "internalType": "uint256",
              "name": "value",
              "type": "uint256"
            }
          ],
          "name": "approve",
          "outputs": [
            {
              "internalType": "bool",
              "name": "",
              "type": "bool"
            }
          ],
          "stateMutability": "nonpayable",
          "type": "function"
        },
        {
          "inputs": [
            {
              "internalType": "address",
              "name": "account",
              "type": "address"
            }
          ],
          "name": "balanceOf",
          "outputs": [
            {
              "internalType": "uint256",
              "name": "",
              "type": "uint256"
            }
          ],
          "stateMutability": "view",
          "type": "function"
        },
        {
          "inputs": [],
          "name": "buyTax",
          "outputs": [
            {
              "internalType": "uint256",
              "name": "",
              "type": "uint256"
            }
          ],
          "stateMutability": "view",
          "type": "function"
        },
        {
          "inputs": [],
          "name": "dailyMaxTransactions",
          "outputs": [
            {
              "internalType": "uint256",
              "name": "",
              "type": "uint256"
            }
          ],
          "stateMutability": "view",
          "type": "function"
        },
        {
          "inputs": [
            {
              "internalType": "address",
              "name": "",
              "type": "address"
            }
          ],
          "name": "dailyTransactions",
          "outputs": [
            {
              "internalType": "uint256",
              "name": "",
              "type": "uint256"
            }
          ],
          "stateMutability": "view",
          "type": "function"
        },
        {
          "inputs": [],
          "name": "decimals",
          "outputs": [
            {
              "internalType": "uint8",
              "name": "",
              "type": "uint8"
            }
          ],
          "stateMutability": "view",
          "type": "function"
        },
        {
          "inputs": [
            {
              "internalType": "address",
              "name": "",
              "type": "address"
            }
          ],
          "name": "lastTransactionDay",
          "outputs": [
            {
              "internalType": "uint256",
              "name": "",
              "type": "uint256"
            }
          ],
          "stateMutability": "view",
          "type": "function"
        },
        {
          "inputs": [],
          "name": "liquidityPool",
          "outputs": [
            {
              "internalType": "address",
              "name": "",
              "type": "address"
            }
          ],
          "stateMutability": "view",
          "type": "function"
        },
        {
          "inputs": [],
          "name": "maxTransactionPercent",
          "outputs": [
            {
              "internalType": "uint256",
              "name": "",
              "type": "uint256"
            }
          ],
          "stateMutability": "view",
          "type": "function"
        },
        {
          "inputs": [],
          "name": "name",
          "outputs": [
            {
              "internalType": "string",
              "name": "",
              "type": "string"
            }
          ],
          "stateMutability": "view",
          "type": "function"
        },
        {
          "inputs": [],
          "name": "owner",
          "outputs": [
            {
              "internalType": "address",
              "name": "",
              "type": "address"
            }
          ],
          "stateMutability": "view",
          "type": "function"
        },
        {
          "inputs": [],
          "name": "renounceOwnership",
          "outputs": [],
          "stateMutability": "nonpayable",
          "type": "function"
        },
        {
          "inputs": [],
          "name": "sellTax",
          "outputs": [
            {
              "internalType": "uint256",
              "name": "",
              "type": "uint256"
            }
          ],
          "stateMutability": "view",
          "type": "function"
        },
        {
          "inputs": [
            {
              "internalType": "address",
              "name": "_pool",
              "type": "address"
            }
          ],
          "name": "setLiquidityPool",
          "outputs": [],
          "stateMutability": "nonpayable",
          "type": "function"
        },
        {
          "inputs": [],
          "name": "symbol",
          "outputs": [
            {
              "internalType": "string",
              "name": "",
              "type": "string"
            }
          ],
          "stateMutability": "view",
          "type": "function"
        },
        {
          "inputs": [],
          "name": "totalSupply",
          "outputs": [
            {
              "internalType": "uint256",
              "name": "",
              "type": "uint256"
            }
          ],
          "stateMutability": "view",
          "type": "function"
        },
        {
          "inputs": [
            {
              "internalType": "address",
              "name": "recipient",
              "type": "address"
            },
            {
              "internalType": "uint256",
              "name": "amount",
              "type": "uint256"
            }
          ],
          "name": "transfer",
          "outputs": [
            {
              "internalType": "bool",
              "name": "",
              "type": "bool"
            }
          ],
          "stateMutability": "nonpayable",
          "type": "function"
        },
        {
          "inputs": [
            {
              "internalType": "address",
              "name": "from",
              "type": "address"
            },
            {
              "internalType": "address",
              "name": "to",
              "type": "address"
            },
            {
              "internalType": "uint256",
              "name": "value",
              "type": "uint256"
            }
          ],
          "name": "transferFrom",
          "outputs": [
            {
              "internalType": "bool",
              "name": "",
              "type": "bool"
            }
          ],
          "stateMutability": "nonpayable",
          "type": "function"
        },
        {
          "inputs": [
            {
              "internalType": "address",
              "name": "newOwner",
              "type": "address"
            }
          ],
          "name": "transferOwnership",
          "outputs": [],
          "stateMutability": "nonpayable",
          "type": "function"
        },
        {
          "inputs": [],
          "name": "treasury",
          "outputs": [
            {
              "internalType": "address",
              "name": "",
              "type": "address"
            }
          ],
          "stateMutability": "view",
          "type": "function"
        },
        {
          "inputs": [
            {
              "internalType": "uint256",
              "name": "_buyTax",
              "type": "uint256"
            },
            {
              "internalType": "uint256",
              "name": "_sellTax",
              "type": "uint256"
            }
          ],
          "name": "updateTaxes",
          "outputs": [],
          "stateMutability": "nonpayable",
          "type": "function"
        },
        {
          "inputs": [
            {
              "internalType": "uint256",
              "name": "_maxPercent",
              "type": "uint256"
            },
            {
              "internalType": "uint256",
              "name": "_dailyMax",
              "type": "uint256"
            }
          ],
          "name": "updateTransactionLimits",
          "outputs": [],
          "stateMutability": "nonpayable",
          "type": "function"
        }
      ],
      "evm": {
        "bytecode": {
          "linkReferences": {},
          "object": "60806040526101f46006556103e86007556064600a55600a600b5534801561002657600080fd5b50604051612ad3380380612ad3833981810160405281019061004891906106f3565b818585816003908161005a91906109bd565b50806004908161006a91906109bd565b505050600073ffffffffffffffffffffffffffffffffffffffff168173ffffffffffffffffffffffffffffffffffffffff16036100df5760006040517f1e4fbdf70000000000000000000000000000000000000000000000000000000081526004016100d69190610a9e565b60405180910390fd5b6100ee8161016e60201b60201c565b506101238261010161023460201b60201c565b600a61010d9190610c28565b856101189190610c73565b61023d60201b60201c565b80600960006101000a81548173ffffffffffffffffffffffffffffffffffffffff021916908373ffffffffffffffffffffffffffffffffffffffff1602179055505050505050610d4a565b6000600560009054906101000a900473ffffffffffffffffffffffffffffffffffffffff16905081600560006101000a81548173ffffffffffffffffffffffffffffffffffffffff021916908373ffffffffffffffffffffffffffffffffffffffff1602179055508173ffffffffffffffffffffffffffffffffffffffff168173ffffffffffffffffffffffffffffffffffffffff167f8be0079c531659141344cd1fd0a4f28419497f9722a3daafe3b4186f6b6457e060405160405180910390a35050565b60006012905090565b600073ffffffffffffffffffffffffffffffffffffffff168273ffffffffffffffffffffffffffffffffffffffff16036102af5760006040517fec442f050000000000000000000000000000000000000000000000000000000081526004016102a69190610a9e565b60405180910390fd5b6102c1600083836102c560201b60201c565b5050565b600073ffffffffffffffffffffffffffffffffffffffff168373ffffffffffffffffffffffffffffffffffffffff160361031757806002600082825461030b9190610cb5565b925050819055506103ea565b60008060008573ffffffffffffffffffffffffffffffffffffffff1673ffffffffffffffffffffffffffffffffffffffff168152602001908152602001600020549050818110156103a3578381836040517fe450d38c00000000000000000000000000000000000000000000000000000000815260040161039a93929190610cf8565b60405180910390fd5b8181036000808673ffffffffffffffffffffffffffffffffffffffff1673ffffffffffffffffffffffffffffffffffffffff16815260200190815260200160002081905550505b600073ffffffffffffffffffffffffffffffffffffffff168273ffffffffffffffffffffffffffffffffffffffff16036104335780600260008282540392505081905550610480565b806000808473ffffffffffffffffffffffffffffffffffffffff1673ffffffffffffffffffffffffffffffffffffffff168152602001908152602001600020600082825401925050819055505b8173ffffffffffffffffffffffffffffffffffffffff168373ffffffffffffffffffffffffffffffffffffffff167fddf252ad1be2c89b69c2b068fc378daa952ba7f163c4a11628f55a4df523b3ef836040516104dd9190610d2f565b60405180910390a3505050565b6000604051905090565b600080fd5b600080fd5b600080fd5b600080fd5b6000601f19601f8301169050919050565b7f4e487b7100000000000000000000000000000000000000000000000000000000600052604160045260246000fd5b61055182610508565b810181811067ffffffffffffffff821117156105705761056f610519565b5b80604052505050565b60006105836104ea565b905061058f8282610548565b919050565b600067ffffffffffffffff8211156105af576105ae610519565b5b6105b882610508565b9050602081019050919050565b60005b838110156105e35780820151818401526020810190506105c8565b60008484015250505050565b60006106026105fd84610594565b610579565b90508281526020810184848401111561061e5761061d610503565b5b6106298482856105c5565b509392505050565b600082601f830112610646576106456104fe565b5b81516106568482602086016105ef565b91505092915050565b6000819050919050565b6106728161065f565b811461067d57600080fd5b50565b60008151905061068f81610669565b92915050565b600073ffffffffffffffffffffffffffffffffffffffff82169050919050565b60006106c082610695565b9050919050565b6106d0816106b5565b81146106db57600080fd5b50565b6000815190506106ed816106c7565b92915050565b600080600080600060a0868803121561070f5761070e6104f4565b5b600086015167ffffffffffffffff81111561072d5761072c6104f9565b5b61073988828901610631565b955050602086015167ffffffffffffffff81111561075a576107596104f9565b5b61076688828901610631565b945050604061077788828901610680565b9350506060610788888289016106de565b9250506080610799888289016106de565b9150509295509295909350565b600081519050919050565b7f4e487b7100000000000000000000000000000000000000000000000000000000600052602260045260246000fd5b600060028204905060018216806107f857607f821691505b60208210810361080b5761080a6107b1565b5b50919050565b60008190508160005260206000209050919050565b60006020601f8301049050919050565b600082821b905092915050565b6000600883026108737fffffffffffffffffffffffffffffffffffffffffffffffffffffffffffffffff82610836565b61087d8683610836565b95508019841693508086168417925050509392505050565b6000819050919050565b60006108ba6108b56108b08461065f565b610895565b61065f565b9050919050565b6000819050919050565b6108d48361089f565b6108e86108e0826108c1565b848454610843565b825550505050565b600090565b6108fd6108f0565b6109088184846108cb565b505050565b5b8181101561092c576109216000826108f5565b60018101905061090e565b5050565b601f8211156109715761094281610811565b61094b84610826565b8101602085101561095a578190505b61096e61096685610826565b83018261090d565b50505b505050565b600082821c905092915050565b600061099460001984600802610976565b1980831691505092915050565b60006109ad8383610983565b9150826002028217905092915050565b6109c6826107a6565b67ffffffffffffffff8111156109df576109de610519565b5b6109e982546107e0565b6109f4828285610930565b600060209050601f831160018114610a275760008415610a15578287015190505b610a1f85826109a1565b865550610a87565b601f198416610a3586610811565b60005b82811015610a5d57848901518255600182019150602085019450602081019050610a38565b86831015610a7a5784890151610a76601f891682610983565b8355505b6001600288020188555050505b505050505050565b610a98816106b5565b82525050565b6000602082019050610ab36000830184610a8f565b92915050565b7f4e487b7100000000000000000000000000000000000000000000000000000000600052601160045260246000fd5b60008160011c9050919050565b6000808291508390505b6001851115610b3f57808604811115610b1b57610b1a610ab9565b5b6001851615610b2a5780820291505b8081029050610b3885610ae8565b9450610aff565b94509492505050565b600082610b585760019050610c14565b81610b665760009050610c14565b8160018114610b7c5760028114610b8657610bb5565b6001915050610c14565b60ff841115610b9857610b97610ab9565b5b8360020a915084821115610baf57610bae610ab9565b5b50610c14565b5060208310610133831016604e8410600b8410161715610bea5782820a905083811115610be557610be4610ab9565b5b610c14565b610bf78484846001610af5565b92509050818404811115610c0e57610c0d610ab9565b5b81810290505b9392505050565b600060ff82169050919050565b6000610c338261065f565b9150610c3e83610c1b565b9250610c6b7fffffffffffffffffffffffffffffffffffffffffffffffffffffffffffffffff8484610b48565b905092915050565b6000610c7e8261065f565b9150610c898361065f565b9250828202610c978161065f565b91508282048414831517610cae57610cad610ab9565b5b5092915050565b6000610cc08261065f565b9150610ccb8361065f565b9250828201905080821115610ce357610ce2610ab9565b5b92915050565b610cf28161065f565b82525050565b6000606082019050610d0d6000830186610a8f565b610d1a6020830185610ce9565b610d276040830184610ce9565b949350505050565b6000602082019050610d446000830184610ce9565b92915050565b611d7a80610d596000396000f3fe608060405234801561001057600080fd5b50600436106101585760003560e01c8063715018a6116100c3578063a9059cbb1161007c578063a9059cbb146103a7578063ad609646146103d7578063af59c95f146103f5578063cc1776d314610425578063dd62ed3e14610443578063f2fde38b1461047357610158565b8063715018a6146102f757806376dabfdb146103015780637ebb640a146103315780638da5cb5b1461034d57806395d89b411461036b578063a51c9ace1461038957610158565b806323b872dd1161011557806323b872dd1461021f578063313ce5671461024f5780634f7041a51461026d57806361d027b31461028b578063665a11ca146102a957806370a08231146102c757610158565b8063018770201461015d57806306fdde031461017957806307b01adb14610197578063095ea7b3146101b55780631006ee0c146101e557806318160ddd14610201575b600080fd5b6101776004803603810190610172919061166a565b61048f565b005b61018161051e565b60405161018e9190611727565b60405180910390f35b61019f6105b0565b6040516101ac9190611762565b60405180910390f35b6101cf60048036038101906101ca91906117a9565b6105b6565b6040516101dc9190611804565b60405180910390f35b6101ff60048036038101906101fa919061181f565b6105d9565b005b61020961067f565b6040516102169190611762565b60405180910390f35b6102396004803603810190610234919061185f565b610689565b6040516102469190611804565b60405180910390f35b6102576106b8565b60405161026491906118ce565b60405180910390f35b6102756106c1565b6040516102829190611762565b60405180910390f35b6102936106c7565b6040516102a091906118f8565b60405180910390f35b6102b16106ed565b6040516102be91906118f8565b60405180910390f35b6102e160048036038101906102dc919061166a565b610713565b6040516102ee9190611762565b60405180910390f35b6102ff61075b565b005b61031b6004803603810190610316919061166a565b61076f565b6040516103289190611762565b60405180910390f35b61034b6004803603810190610346919061181f565b610787565b005b61035561081f565b60405161036291906118f8565b60405180910390f35b610373610849565b6040516103809190611727565b60405180910390f35b6103916108db565b60405161039e9190611762565b60405180910390f35b6103c160048036038101906103bc91906117a9565b6108e1565b6040516103ce9190611804565b60405180910390f35b6103df610953565b6040516103ec9190611762565b60405180910390f35b61040f600480360381019061040a919061166a565b610959565b60405161041c9190611762565b60405180910390f35b61042d610971565b60405161043a9190611762565b60405180910390f35b61045d60048036038101906104589190611913565b610977565b60405161046a9190611762565b60405180910390f35b61048d6004803603810190610488919061166a565b6109fe565b005b610497610a84565b80600860006101000a81548173ffffffffffffffffffffffffffffffffffffffff021916908373ffffffffffffffffffffffffffffffffffffffff1602179055508073ffffffffffffffffffffffffffffffffffffffff167fe57f71636571365571c0eaeaeb54e1d9e0065804f056a57a2a29448524f7d18a60405160405180910390a250565b60606003805461052d90611982565b80601f016020809104026020016040519081016040528092919081815260200182805461055990611982565b80156105a65780601f1061057b576101008083540402835291602001916105a6565b820191906000526020600020905b81548152906001019060200180831161058957829003601f168201915b5050505050905090565b600b5481565b6000806105c1610b0b565b90506105ce818585610b13565b600191505092915050565b6105e1610a84565b6107d082111580156105f55750610bb88111155b610634576040517f08c379a000000000000000000000000000000000000000000000000000000000815260040161062b906119ff565b60405180910390fd5b81600681905550806007819055507fb841faf0d1b32571f4ef966a2f35e3ae51f3cdda45318c3da5570a5b2ad856058282604051610673929190611a1f565b60405180910390a15050565b6000600254905090565b600080610694610b0b565b90506106a1858285610b25565b6106ac858585610bba565b60019150509392505050565b60006012905090565b60065481565b600960009054906101000a900473ffffffffffffffffffffffffffffffffffffffff1681565b600860009054906101000a900473ffffffffffffffffffffffffffffffffffffffff1681565b60008060008373ffffffffffffffffffffffffffffffffffffffff1673ffffffffffffffffffffffffffffffffffffffff168152602001908152602001600020549050919050565b610763610a84565b61076d6000610cae565b565b600c6020528060005260406000206000915090505481565b61078f610a84565b6101f48211156107d4576040517f08c379a00000000000000000000000000000000000000000000000000000000081526004016107cb90611a94565b60405180910390fd5b81600a8190555080600b819055507f0ed166407696d0f463c315602b11865dcca4c099e9676223521cab7afa90df328282604051610813929190611a1f565b60405180910390a15050565b6000600560009054906101000a900473ffffffffffffffffffffffffffffffffffffffff16905090565b60606004805461085890611982565b80601f016020809104026020016040519081016040528092919081815260200182805461088490611982565b80156108d15780601f106108a6576101008083540402835291602001916108d1565b820191906000526020600020905b8154815290600101906020018083116108b457829003601f168201915b5050505050905090565b61271081565b60006108f46108ee610b0b565b83610d74565b6000610908610901610b0b565b8585610f9e565b9050600081846109189190611ae3565b905061092c610925610b0b565b8683610bba565b60008211156109475761094682610941610b0b565b6110a8565b5b60019250505092915050565b600a5481565b600d6020528060005260406000206000915090505481565b60075481565b6000600160008473ffffffffffffffffffffffffffffffffffffffff1673ffffffffffffffffffffffffffffffffffffffff16815260200190815260200160002060008373ffffffffffffffffffffffffffffffffffffffff1673ffffffffffffffffffffffffffffffffffffffff16815260200190815260200160002054905092915050565b610a06610a84565b600073ffffffffffffffffffffffffffffffffffffffff168173ffffffffffffffffffffffffffffffffffffffff1603610a785760006040517f1e4fbdf7000000000000000000000000000000000000000000000000000000008152600401610a6f91906118f8565b60405180910390fd5b610a8181610cae565b50565b610a8c610b0b565b73ffffffffffffffffffffffffffffffffffffffff16610aaa61081f565b73ffffffffffffffffffffffffffffffffffffffff1614610b0957610acd610b0b565b6040517f118cdaa7000000000000000000000000000000000000000000000000000000008152600401610b0091906118f8565b60405180910390fd5b565b600033905090565b610b20838383600161120b565b505050565b6000610b318484610977565b90507fffffffffffffffffffffffffffffffffffffffffffffffffffffffffffffffff811015610bb45781811015610ba4578281836040517ffb8f41b2000000000000000000000000000000000000000000000000000000008152600401610b9b93929190611b17565b60405180910390fd5b610bb38484848403600061120b565b5b50505050565b600073ffffffffffffffffffffffffffffffffffffffff168373ffffffffffffffffffffffffffffffffffffffff1603610c2c5760006040517f96c6fd1e000000000000000000000000000000000000000000000000000000008152600401610c2391906118f8565b60405180910390fd5b600073ffffffffffffffffffffffffffffffffffffffff168273ffffffffffffffffffffffffffffffffffffffff1603610c9e5760006040517fec442f05000000000000000000000000000000000000000000000000000000008152600401610c9591906118f8565b60405180910390fd5b610ca98383836113e2565b505050565b6000600560009054906101000a900473ffffffffffffffffffffffffffffffffffffffff16905081600560006101000a81548173ffffffffffffffffffffffffffffffffffffffff021916908373ffffffffffffffffffffffffffffffffffffffff1602179055508173ffffffffffffffffffffffffffffffffffffffff168173ffffffffffffffffffffffffffffffffffffffff167f8be0079c531659141344cd1fd0a4f28419497f9722a3daafe3b4186f6b6457e060405160405180910390a35050565b6000612710600a54610d8461067f565b610d8e9190611b4e565b610d989190611bbf565b905080821115610ddd576040517f08c379a0000000000000000000000000000000000000000000000000000000008152600401610dd490611c3c565b60405180910390fd5b60006201518042610dee9190611bbf565b905080600d60008673ffffffffffffffffffffffffffffffffffffffff1673ffffffffffffffffffffffffffffffffffffffff1681526020019081526020016000205414610ec0576000600c60008673ffffffffffffffffffffffffffffffffffffffff1673ffffffffffffffffffffffffffffffffffffffff1681526020019081526020016000208190555080600d60008673ffffffffffffffffffffffffffffffffffffffff1673ffffffffffffffffffffffffffffffffffffffff168152602001908152602001600020819055505b600b54600c60008673ffffffffffffffffffffffffffffffffffffffff1673ffffffffffffffffffffffffffffffffffffffff1681526020019081526020016000205410610f43576040517f08c379a0000000000000000000000000000000000000000000000000000000008152600401610f3a90611ca8565b60405180910390fd5b600c60008573ffffffffffffffffffffffffffffffffffffffff1673ffffffffffffffffffffffffffffffffffffffff1681526020019081526020016000206000815480929190610f9390611cc8565b919050555050505050565b600080600860009054906101000a900473ffffffffffffffffffffffffffffffffffffffff1673ffffffffffffffffffffffffffffffffffffffff168473ffffffffffffffffffffffffffffffffffffffff161490506000600860009054906101000a900473ffffffffffffffffffffffffffffffffffffffff1673ffffffffffffffffffffffffffffffffffffffff168673ffffffffffffffffffffffffffffffffffffffff16149050811561107157612710600754856110609190611b4e565b61106a9190611bbf565b925061109f565b801561109957612710600654856110889190611b4e565b6110929190611bbf565b925061109e565b600092505b5b50509392505050565b6000820315611207576000612710611388846110c49190611b4e565b6110ce9190611bbf565b9050600081846110de9190611ae3565b905060008211801561113f5750600073ffffffffffffffffffffffffffffffffffffffff16600960009054906101000a900473ffffffffffffffffffffffffffffffffffffffff1673ffffffffffffffffffffffffffffffffffffffff1614155b156111725761117183600960009054906101000a900473ffffffffffffffffffffffffffffffffffffffff1684610bba565b5b6000811180156111d15750600073ffffffffffffffffffffffffffffffffffffffff16600860009054906101000a900473ffffffffffffffffffffffffffffffffffffffff1673ffffffffffffffffffffffffffffffffffffffff1614155b156112045761120383600860009054906101000a900473ffffffffffffffffffffffffffffffffffffffff1683610bba565b5b50505b5050565b600073ffffffffffffffffffffffffffffffffffffffff168473ffffffffffffffffffffffffffffffffffffffff160361127d5760006040517fe602df0500000000000000000000000000000000000000000000000000000000815260040161127491906118f8565b60405180910390fd5b600073ffffffffffffffffffffffffffffffffffffffff168373ffffffffffffffffffffffffffffffffffffffff16036112ef5760006040517f94280d620000000000000000000000000000000000000000000000000000000081526004016112e691906118f8565b60405180910390fd5b81600160008673ffffffffffffffffffffffffffffffffffffffff1673ffffffffffffffffffffffffffffffffffffffff16815260200190815260200160002060008573ffffffffffffffffffffffffffffffffffffffff1673ffffffffffffffffffffffffffffffffffffffff1681526020019081526020016000208190555080156113dc578273ffffffffffffffffffffffffffffffffffffffff168473ffffffffffffffffffffffffffffffffffffffff167f8c5be1e5ebec7d5bd14f71427d1e84f3dd0314c0f7b2291e5b200ac8c7c3b925846040516113d39190611762565b60405180910390a35b50505050565b600073ffffffffffffffffffffffffffffffffffffffff168373ffffffffffffffffffffffffffffffffffffffff16036114345780600260008282546114289190611d10565b92505081905550611507565b60008060008573ffffffffffffffffffffffffffffffffffffffff1673ffffffffffffffffffffffffffffffffffffffff168152602001908152602001600020549050818110156114c0578381836040517fe450d38c0000000000000000000000000000000000000000000000000000000081526004016114b793929190611b17565b60405180910390fd5b8181036000808673ffffffffffffffffffffffffffffffffffffffff1673ffffffffffffffffffffffffffffffffffffffff16815260200190815260200160002081905550505b600073ffffffffffffffffffffffffffffffffffffffff168273ffffffffffffffffffffffffffffffffffffffff1603611550578060026000828254039250508190555061159d565b806000808473ffffffffffffffffffffffffffffffffffffffff1673ffffffffffffffffffffffffffffffffffffffff168152602001908152602001600020600082825401925050819055505b8173ffffffffffffffffffffffffffffffffffffffff168373ffffffffffffffffffffffffffffffffffffffff167fddf252ad1be2c89b69c2b068fc378daa952ba7f163c4a11628f55a4df523b3ef836040516115fa9190611762565b60405180910390a3505050565b600080fd5b600073ffffffffffffffffffffffffffffffffffffffff82169050919050565b60006116378261160c565b9050919050565b6116478161162c565b811461165257600080fd5b50565b6000813590506116648161163e565b92915050565b6000602082840312156116805761167f611607565b5b600061168e84828501611655565b91505092915050565b600081519050919050565b600082825260208201905092915050565b60005b838110156116d15780820151818401526020810190506116b6565b60008484015250505050565b6000601f19601f8301169050919050565b60006116f982611697565b61170381856116a2565b93506117138185602086016116b3565b61171c816116dd565b840191505092915050565b6000602082019050818103600083015261174181846116ee565b905092915050565b6000819050919050565b61175c81611749565b82525050565b60006020820190506117776000830184611753565b92915050565b61178681611749565b811461179157600080fd5b50565b6000813590506117a38161177d565b92915050565b600080604083850312156117c0576117bf611607565b5b60006117ce85828601611655565b92505060206117df85828601611794565b9150509250929050565b60008115159050919050565b6117fe816117e9565b82525050565b600060208201905061181960008301846117f5565b92915050565b6000806040838503121561183657611835611607565b5b600061184485828601611794565b925050602061185585828601611794565b9150509250929050565b60008060006060848603121561187857611877611607565b5b600061188686828701611655565b935050602061189786828701611655565b92505060406118a886828701611794565b9150509250925092565b600060ff82169050919050565b6118c8816118b2565b82525050565b60006020820190506118e360008301846118bf565b92915050565b6118f28161162c565b82525050565b600060208201905061190d60008301846118e9565b92915050565b6000806040838503121561192a57611929611607565b5b600061193885828601611655565b925050602061194985828601611655565b9150509250929050565b7f4e487b7100000000000000000000000000000000000000000000000000000000600052602260045260246000fd5b6000600282049050600182168061199a57607f821691505b6020821081036119ad576119ac611953565b5b50919050565b7f54617820746f6f20686967680000000000000000000000000000000000000000600082015250565b60006119e9600c836116a2565b91506119f4826119b3565b602082019050919050565b60006020820190508181036000830152611a18816119dc565b9050919050565b6000604082019050611a346000830185611753565b611a416020830184611753565b9392505050565b7f4d61782070657263656e7420746f6f2068696768000000000000000000000000600082015250565b6000611a7e6014836116a2565b9150611a8982611a48565b602082019050919050565b60006020820190508181036000830152611aad81611a71565b9050919050565b7f4e487b7100000000000000000000000000000000000000000000000000000000600052601160045260246000fd5b6000611aee82611749565b9150611af983611749565b9250828203905081811115611b1157611b10611ab4565b5b92915050565b6000606082019050611b2c60008301866118e9565b611b396020830185611753565b611b466040830184611753565b949350505050565b6000611b5982611749565b9150611b6483611749565b9250828202611b7281611749565b91508282048414831517611b8957611b88611ab4565b5b5092915050565b7f4e487b7100000000000000000000000000000000000000000000000000000000600052601260045260246000fd5b6000611bca82611749565b9150611bd583611749565b925082611be557611be4611b90565b5b828204905092915050565b7f45786365656473206d6178207472616e73616374696f6e20616d6f756e740000600082015250565b6000611c26601e836116a2565b9150611c3182611bf0565b602082019050919050565b60006020820190508181036000830152611c5581611c19565b9050919050565b7f45786365656473206461696c79207472616e73616374696f6e206c696d697400600082015250565b6000611c92601f836116a2565b9150611c9d82611c5c565b602082019050919050565b60006020820190508181036000830152611cc181611c85565b9050919050565b6000611cd382611749565b91507fffffffffffffffffffffffffffffffffffffffffffffffffffffffffffffffff8203611d0557611d04611ab4565b5b600182019050919050565b6000611d1b82611749565b9150611d2683611749565b9250828201905080821115611d3e57611d3d611ab4565b5b9291505056fea2646970667358221220916a624fcd550a696aaea9af8d6a0dfd3c5ae0d87053bd058d6fce38ef91d98364736f6c634300081c0033",
          "opcodes": "PUSH1 0x80 PUSH1 0x40 MSTORE PUSH2 0x1F4 PUSH1 0x6 SSTORE PUSH2 0x3E8 PUSH1 0x7 SSTORE PUSH1 0x64 PUSH1 0xA SSTORE PUSH1 0xA PUSH1 0xB SSTORE CALLVALUE DUP1 ISZERO PUSH2 0x26 JUMPI PUSH1 0x0 DUP1 REVERT JUMPDEST POP PUSH1 0x40 MLOAD PUSH2 0x2AD3 CODESIZE SUB DUP1 PUSH2 0x2AD3 DUP4 CODECOPY DUP2 DUP2 ADD PUSH1 0x40 MSTORE DUP2 ADD SWAP1 PUSH2 0x48 SWAP2 SWAP1 PUSH2 0x6F3 JUMP JUMPDEST DUP2 DUP6 DUP6 DUP2 PUSH1 0x3 SWAP1 DUP2 PUSH2 0x5A SWAP2 SWAP1 PUSH2 0x9BD JUMP JUMPDEST POP DUP1 PUSH1 0x4 SWAP1 DUP2 PUSH2 0x6A SWAP2 SWAP1 PUSH2 0x9BD JUMP JUMPDEST POP POP POP PUSH1 0x0 PUSH20 0xFFFFFFFFFFFFFFFFFFFFFFFFFFFFFFFFFFFFFFFF AND DUP2 PUSH20 0xFFFFFFFFFFFFFFFFFFFFFFFFFFFFFFFFFFFFFFFF AND SUB PUSH2 0xDF JUMPI PUSH1 0x0 PUSH1 0x40 MLOAD PUSH32 0x1E4FBDF700000000000000000000000000000000000000000000000000000000 DUP2 MSTORE PUSH1 0x4 ADD PUSH2 0xD6 SWAP2 SWAP1 PUSH2 0xA9E JUMP JUMPDEST PUSH1 0x40 MLOAD DUP1 SWAP2 SUB SWAP1 REVERT JUMPDEST PUSH2 0xEE DUP2 PUSH2 0x16E PUSH1 0x20 SHL PUSH1 0x20 SHR JUMP JUMPDEST POP PUSH2 0x123 DUP3 PUSH2 0x101 PUSH2 0x234 PUSH1 0x20 SHL PUSH1 0x20 SHR JUMP JUMPDEST PUSH1 0xA PUSH2 0x10D SWAP2 SWAP1 PUSH2 0xC28 JUMP JUMPDEST DUP6 PUSH2 0x118 SWAP2 SWAP1 PUSH2 0xC73 JUMP JUMPDEST PUSH2 0x23D PUSH1 0x20 SHL PUSH1 0x20 SHR JUMP JUMPDEST DUP1 PUSH1 0x9 PUSH1 0x0 PUSH2 0x100 EXP DUP2 SLOAD DUP2 PUSH20 0xFFFFFFFFFFFFFFFFFFFFFFFFFFFFFFFFFFFFFFFF MUL NOT AND SWAP1 DUP4 PUSH20 0xFFFFFFFFFFFFFFFFFFFFFFFFFFFFFFFFFFFFFFFF AND MUL OR SWAP1 SSTORE POP POP POP POP POP POP PUSH2 0xD4A JUMP JUMPDEST PUSH1 0x0 PUSH1 0x5 PUSH1 0x0 SWAP1 SLOAD SWAP1 PUSH2 0x100 EXP SWAP1 DIV PUSH20 0xFFFFFFFFFFFFFFFFFFFFFFFFFFFFFFFFFFFFFFFF AND SWAP1 POP DUP2 PUSH1 0x5 PUSH1 0x0 PUSH2 0x100 EXP DUP2 SLOAD DUP2 PUSH20 0xFFFFFFFFFFFFFFFFFFFFFFFFFFFFFFFFFFFFFFFF MUL NOT AND SWAP1 DUP4 PUSH20 0xFFFFFFFFFFFFFFFFFFFFFFFFFFFFFFFFFFFFFFFF AND MUL OR SWAP1 SSTORE POP DUP2 PUSH20 0xFFFFFFFFFFFFFFFFFFFFFFFFFFFFFFFFFFFFFFFF AND DUP2 PUSH20 0xFFFFFFFFFFFFFFFFFFFFFFFFFFFFFFFFFFFFFFFF AND PUSH32 0x8BE0079C531659141344CD1FD0A4F28419497F9722A3DAAFE3B4186F6B6457E0 PUSH1 0x40 MLOAD PUSH1 0x40 MLOAD DUP1 SWAP2 SUB SWAP1 LOG3 POP POP JUMP JUMPDEST PUSH1 0x0 PUSH1 0x12 SWAP1 POP SWAP1 JUMP JUMPDEST PUSH1 0x0 PUSH20 0xFFFFFFFFFFFFFFFFFFFFFFFFFFFFFFFFFFFFFFFF AND DUP3 PUSH20 0xFFFFFFFFFFFFFFFFFFFFFFFFFFFFFFFFFFFFFFFF AND SUB PUSH2 0x2AF JUMPI PUSH1 0x0 PUSH1 0x40 MLOAD PUSH32 0xEC442F0500000000000000000000000000000000000000000000000000000000 DUP2 MSTORE PUSH1 0x4 ADD PUSH2 0x2A6 SWAP2 SWAP1 PUSH2 0xA9E JUMP JUMPDEST PUSH1 0x40 MLOAD DUP1 SWAP2 SUB SWAP1 REVERT JUMPDEST PUSH2 0x2C1 PUSH1 0x0 DUP4 DUP4 PUSH2 0x2C5 PUSH1 0x20 SHL PUSH1 0x20 SHR JUMP JUMPDEST POP POP JUMP JUMPDEST PUSH1 0x0 PUSH20 0xFFFFFFFFFFFFFFFFFFFFFFFFFFFFFFFFFFFFFFFF AND DUP4 PUSH20 0xFFFFFFFFFFFFFFFFFFFFFFFFFFFFFFFFFFFFFFFF AND SUB PUSH2 0x317 JUMPI DUP1 PUSH1 0x2 PUSH1 0x0 DUP3 DUP3 SLOAD PUSH2 0x30B SWAP2 SWAP1 PUSH2 0xCB5 JUMP JUMPDEST SWAP3 POP POP DUP2 SWAP1 SSTORE POP PUSH2 0x3EA JUMP JUMPDEST PUSH1 0x0 DUP1 PUSH1 0x0 DUP6 PUSH20 0xFFFFFFFFFFFFFFFFFFFFFFFFFFFFFFFFFFFFFFFF AND PUSH20 0xFFFFFFFFFFFFFFFFFFFFFFFFFFFFFFFFFFFFFFFF AND DUP2 MSTORE PUSH1 0x20 ADD SWAP1 DUP2 MSTORE PUSH1 0x20 ADD PUSH1 0x0 KECCAK256 SLOAD SWAP1 POP DUP2 DUP2 LT ISZERO PUSH2 0x3A3 JUMPI DUP4 DUP2 DUP4 PUSH1 0x40 MLOAD PUSH32 0xE450D38C00000000000000000000000000000000000000000000000000000000 DUP2 MSTORE PUSH1 0x4 ADD PUSH2 0x39A SWAP4 SWAP3 SWAP2 SWAP1 PUSH2 0xCF8 JUMP JUMPDEST PUSH1 0x40 MLOAD DUP1 SWAP2 SUB SWAP1 REVERT JUMPDEST DUP2 DUP2 SUB PUSH1 0x0 DUP1 DUP7 PUSH20 0xFFFFFFFFFFFFFFFFFFFFFFFFFFFFFFFFFFFFFFFF AND PUSH20 0xFFFFFFFFFFFFFFFFFFFFFFFFFFFFFFFFFFFFFFFF AND DUP2 MSTORE PUSH1 0x20 ADD SWAP1 DUP2 MSTORE PUSH1 0x20 ADD PUSH1 0x0 KECCAK256 DUP2 SWAP1 SSTORE POP POP JUMPDEST PUSH1 0x0 PUSH20 0xFFFFFFFFFFFFFFFFFFFFFFFFFFFFFFFFFFFFFFFF AND DUP3 PUSH20 0xFFFFFFFFFFFFFFFFFFFFFFFFFFFFFFFFFFFFFFFF AND SUB PUSH2 0x433 JUMPI DUP1 PUSH1 0x2 PUSH1 0x0 DUP3 DUP3 SLOAD SUB SWAP3 POP POP DUP2 SWAP1 SSTORE POP PUSH2 0x480 JUMP JUMPDEST DUP1 PUSH1 0x0 DUP1 DUP5 PUSH20 0xFFFFFFFFFFFFFFFFFFFFFFFFFFFFFFFFFFFFFFFF AND PUSH20 0xFFFFFFFFFFFFFFFFFFFFFFFFFFFFFFFFFFFFFFFF AND DUP2 MSTORE PUSH1 0x20 ADD SWAP1 DUP2 MSTORE PUSH1 0x20 ADD PUSH1 0x0 KECCAK256 PUSH1 0x0 DUP3 DUP3 SLOAD ADD SWAP3 POP POP DUP2 SWAP1 SSTORE POP JUMPDEST DUP2 PUSH20 0xFFFFFFFFFFFFFFFFFFFFFFFFFFFFFFFFFFFFFFFF AND DUP4 PUSH20 0xFFFFFFFFFFFFFFFFFFFFFFFFFFFFFFFFFFFFFFFF AND PUSH32 0xDDF252AD1BE2C89B69C2B068FC378DAA952BA7F163C4A11628F55A4DF523B3EF DUP4 PUSH1 0x40 MLOAD PUSH2 0x4DD SWAP2 SWAP1 PUSH2 0xD2F JUMP JUMPDEST PUSH1 0x40 MLOAD DUP1 SWAP2 SUB SWAP1 LOG3 POP POP POP JUMP JUMPDEST PUSH1 0x0 PUSH1 0x40 MLOAD SWAP1 POP SWAP1 JUMP JUMPDEST PUSH1 0x0 DUP1 REVERT JUMPDEST PUSH1 0x0 DUP1 REVERT JUMPDEST PUSH1 0x0 DUP1 REVERT JUMPDEST PUSH1 0x0 DUP1 REVERT JUMPDEST PUSH1 0x0 PUSH1 0x1F NOT PUSH1 0x1F DUP4 ADD AND SWAP1 POP SWAP2 SWAP1 POP JUMP JUMPDEST PUSH32 0x4E487B7100000000000000000000000000000000000000000000000000000000 PUSH1 0x0 MSTORE PUSH1 0x41 PUSH1 0x4 MSTORE PUSH1 0x24 PUSH1 0x0 REVERT JUMPDEST PUSH2 0x551 DUP3 PUSH2 0x508 JUMP JUMPDEST DUP2 ADD DUP2 DUP2 LT PUSH8 0xFFFFFFFFFFFFFFFF DUP3 GT OR ISZERO PUSH2 0x570 JUMPI PUSH2 0x56F PUSH2 0x519 JUMP JUMPDEST JUMPDEST DUP1 PUSH1 0x40 MSTORE POP POP POP JUMP JUMPDEST PUSH1 0x0 PUSH2 0x583 PUSH2 0x4EA JUMP JUMPDEST SWAP1 POP PUSH2 0x58F DUP3 DUP3 PUSH2 0x548 JUMP JUMPDEST SWAP2 SWAP1 POP JUMP JUMPDEST PUSH1 0x0 PUSH8 0xFFFFFFFFFFFFFFFF DUP3 GT ISZERO PUSH2 0x5AF JUMPI PUSH2 0x5AE PUSH2 0x519 JUMP JUMPDEST JUMPDEST PUSH2 0x5B8 DUP3 PUSH2 0x508 JUMP JUMPDEST SWAP1 POP PUSH1 0x20 DUP2 ADD SWAP1 POP SWAP2 SWAP1 POP JUMP JUMPDEST PUSH1 0x0 JUMPDEST DUP4 DUP2 LT ISZERO PUSH2 0x5E3 JUMPI DUP1 DUP3 ADD MLOAD DUP2 DUP5 ADD MSTORE PUSH1 0x20 DUP2 ADD SWAP1 POP PUSH2 0x5C8 JUMP JUMPDEST PUSH1 0x0 DUP5 DUP5 ADD MSTORE POP POP POP POP JUMP JUMPDEST PUSH1 0x0 PUSH2 0x602 PUSH2 0x5FD DUP5 PUSH2 0x594 JUMP JUMPDEST PUSH2 0x579 JUMP JUMPDEST SWAP1 POP DUP3 DUP2 MSTORE PUSH1 0x20 DUP2 ADD DUP5 DUP5 DUP5 ADD GT ISZERO PUSH2 0x61E JUMPI PUSH2 0x61D PUSH2 0x503 JUMP JUMPDEST JUMPDEST PUSH2 0x629 DUP5 DUP3 DUP6 PUSH2 0x5C5 JUMP JUMPDEST POP SWAP4 SWAP3 POP POP POP JUMP JUMPDEST PUSH1 0x0 DUP3 PUSH1 0x1F DUP4 ADD SLT PUSH2 0x646 JUMPI PUSH2 0x645 PUSH2 0x4FE JUMP JUMPDEST JUMPDEST DUP2 MLOAD PUSH2 0x656 DUP5 DUP3 PUSH1 0x20 DUP7 ADD PUSH2 0x5EF JUMP JUMPDEST SWAP2 POP POP SWAP3 SWAP2 POP POP JUMP JUMPDEST PUSH1 0x0 DUP2 SWAP1 POP SWAP2 SWAP1 POP JUMP JUMPDEST PUSH2 0x672 DUP2 PUSH2 0x65F JUMP JUMPDEST DUP2 EQ PUSH2 0x67D JUMPI PUSH1 0x0 DUP1 REVERT JUMPDEST POP JUMP JUMPDEST PUSH1 0x0 DUP2 MLOAD SWAP1 POP PUSH2 0x68F DUP2 PUSH2 0x669 JUMP JUMPDEST SWAP3 SWAP2 POP POP JUMP JUMPDEST PUSH1 0x0 PUSH20 0xFFFFFFFFFFFFFFFFFFFFFFFFFFFFFFFFFFFFFFFF DUP3 AND SWAP1 POP SWAP2 SWAP1 POP JUMP JUMPDEST PUSH1 0x0 PUSH2 0x6C0 DUP3 PUSH2 0x695 JUMP JUMPDEST SWAP1 POP SWAP2 SWAP1 POP JUMP JUMPDEST PUSH2 0x6D0 DUP2 PUSH2 0x6B5 JUMP JUMPDEST DUP2 EQ PUSH2 0x6DB JUMPI PUSH1 0x0 DUP1 REVERT JUMPDEST POP JUMP JUMPDEST PUSH1 0x0 DUP2 MLOAD SWAP1 POP PUSH2 0x6ED DUP2 PUSH2 0x6C7 JUMP JUMPDEST SWAP3 SWAP2 POP POP JUMP JUMPDEST PUSH1 0x0 DUP1 PUSH1 0x0 DUP1 PUSH1 0x0 PUSH1 0xA0 DUP7 DUP9 SUB SLT ISZERO PUSH2 0x70F JUMPI PUSH2 0x70E PUSH2 0x4F4 JUMP JUMPDEST JUMPDEST PUSH1 0x0 DUP7 ADD MLOAD PUSH8 0xFFFFFFFFFFFFFFFF DUP2 GT ISZERO PUSH2 0x72D JUMPI PUSH2 0x72C PUSH2 0x4F9 JUMP JUMPDEST JUMPDEST PUSH2 0x739 DUP9 DUP3 DUP10 ADD PUSH2 0x631 JUMP JUMPDEST SWAP6 POP POP PUSH1 0x20 DUP7 ADD MLOAD PUSH8 0xFFFFFFFFFFFFFFFF DUP2 GT ISZERO PUSH2 0x75A JUMPI PUSH2 0x759 PUSH2 0x4F9 JUMP JUMPDEST JUMPDEST PUSH2 0x766 DUP9 DUP3 DUP10 ADD PUSH2 0x631 JUMP JUMPDEST SWAP5 POP POP PUSH1 0x40 PUSH2 0x777 DUP9 DUP3 DUP10 ADD PUSH2 0x680 JUMP JUMPDEST SWAP4 POP POP PUSH1 0x60 PUSH2 0x788 DUP9 DUP3 DUP10 ADD PUSH2 0x6DE JUMP JUMPDEST SWAP3 POP POP PUSH1 0x80 PUSH2 0x799 DUP9 DUP3 DUP10 ADD PUSH2 0x6DE JUMP JUMPDEST SWAP2 POP POP SWAP3 SWAP6 POP SWAP3 SWAP6 SWAP1 SWAP4 POP JUMP JUMPDEST PUSH1 0x0 DUP2 MLOAD SWAP1 POP SWAP2 SWAP1 POP JUMP JUMPDEST PUSH32 0x4E487B7100000000000000000000000000000000000000000000000000000000 PUSH1 0x0 MSTORE PUSH1 0x22 PUSH1 0x4 MSTORE PUSH1 0x24 PUSH1 0x0 REVERT JUMPDEST PUSH1 0x0 PUSH1 0x2 DUP3 DIV SWAP1 POP PUSH1 0x1 DUP3 AND DUP1 PUSH2 0x7F8 JUMPI PUSH1 0x7F DUP3 AND SWAP2 POP JUMPDEST PUSH1 0x20 DUP3 LT DUP2 SUB PUSH2 0x80B JUMPI PUSH2 0x80A PUSH2 0x7B1 JUMP JUMPDEST JUMPDEST POP SWAP2 SWAP1 POP JUMP JUMPDEST PUSH1 0x0 DUP2 SWAP1 POP DUP2 PUSH1 0x0 MSTORE PUSH1 0x20 PUSH1 0x0 KECCAK256 SWAP1 POP SWAP2 SWAP1 POP JUMP JUMPDEST PUSH1 0x0 PUSH1 0x20 PUSH1 0x1F DUP4 ADD DIV SWAP1 POP SWAP2 SWAP1 POP JUMP JUMPDEST PUSH1 0x0 DUP3 DUP3 SHL SWAP1 POP SWAP3 SWAP2 POP POP JUMP JUMPDEST PUSH1 0x0 PUSH1 0x8 DUP4 MUL PUSH2 0x873 PUSH32 0xFFFFFFFFFFFFFFFFFFFFFFFFFFFFFFFFFFFFFFFFFFFFFFFFFFFFFFFFFFFFFFFF DUP3 PUSH2 0x836 JUMP JUMPDEST PUSH2 0x87D DUP7 DUP4 PUSH2 0x836 JUMP JUMPDEST SWAP6 POP DUP1 NOT DUP5 AND SWAP4 POP DUP1 DUP7 AND DUP5 OR SWAP3 POP POP POP SWAP4 SWAP3 POP POP POP JUMP JUMPDEST PUSH1 0x0 DUP2 SWAP1 POP SWAP2 SWAP1 POP JUMP JUMPDEST PUSH1 0x0 PUSH2 0x8BA PUSH2 0x8B5 PUSH2 0x8B0 DUP5 PUSH2 0x65F JUMP JUMPDEST PUSH2 0x895 JUMP JUMPDEST PUSH2 0x65F JUMP JUMPDEST SWAP1 POP SWAP2 SWAP1 POP JUMP JUMPDEST PUSH1 0x0 DUP2 SWAP1 POP SWAP2 SWAP1 POP JUMP JUMPDEST PUSH2 0x8D4 DUP4 PUSH2 0x89F JUMP JUMPDEST PUSH2 0x8E8 PUSH2 0x8E0 DUP3 PUSH2 0x8C1 JUMP JUMPDEST DUP5 DUP5 SLOAD PUSH2 0x843 JUMP JUMPDEST DUP3 SSTORE POP POP POP POP JUMP JUMPDEST PUSH1 0x0 SWAP1 JUMP JUMPDEST PUSH2 0x8FD PUSH2 0x8F0 JUMP JUMPDEST PUSH2 0x908 DUP2 DUP5 DUP5 PUSH2 0x8CB JUMP JUMPDEST POP POP POP JUMP JUMPDEST JUMPDEST DUP2 DUP2 LT ISZERO PUSH2 0x92C JUMPI PUSH2 0x921 PUSH1 0x0 DUP3 PUSH2 0x8F5 JUMP JUMPDEST PUSH1 0x1 DUP2 ADD SWAP1 POP PUSH2 0x90E JUMP JUMPDEST POP POP JUMP JUMPDEST PUSH1 0x1F DUP3 GT ISZERO PUSH2 0x971 JUMPI PUSH2 0x942 DUP2 PUSH2 0x811 JUMP JUMPDEST PUSH2 0x94B DUP5 PUSH2 0x826 JUMP JUMPDEST DUP2 ADD PUSH1 0x20 DUP6 LT ISZERO PUSH2 0x95A JUMPI DUP2 SWAP1 POP JUMPDEST PUSH2 0x96E PUSH2 0x966 DUP6 PUSH2 0x826 JUMP JUMPDEST DUP4 ADD DUP3 PUSH2 0x90D JUMP JUMPDEST POP POP JUMPDEST POP POP POP JUMP JUMPDEST PUSH1 0x0 DUP3 DUP3 SHR SWAP1 POP SWAP3 SWAP2 POP POP JUMP JUMPDEST PUSH1 0x0 PUSH2 0x994 PUSH1 0x0 NOT DUP5 PUSH1 0x8 MUL PUSH2 0x976 JUMP JUMPDEST NOT DUP1 DUP4 AND SWAP2 POP POP SWAP3 SWAP2 POP POP JUMP JUMPDEST PUSH1 0x0 PUSH2 0x9AD DUP4 DUP4 PUSH2 0x983 JUMP JUMPDEST SWAP2 POP DUP3 PUSH1 0x2 MUL DUP3 OR SWAP1 POP SWAP3 SWAP2 POP POP JUMP JUMPDEST PUSH2 0x9C6 DUP3 PUSH2 0x7A6 JUMP JUMPDEST PUSH8 0xFFFFFFFFFFFFFFFF DUP2 GT ISZERO PUSH2 0x9DF JUMPI PUSH2 0x9DE PUSH2 0x519 JUMP JUMPDEST JUMPDEST PUSH2 0x9E9 DUP3 SLOAD PUSH2 0x7E0 JUMP JUMPDEST PUSH2 0x9F4 DUP3 DUP3 DUP6 PUSH2 0x930 JUMP JUMPDEST PUSH1 0x0 PUSH1 0x20 SWAP1 POP PUSH1 0x1F DUP4 GT PUSH1 0x1 DUP2 EQ PUSH2 0xA27 JUMPI PUSH1 0x0 DUP5 ISZERO PUSH2 0xA15 JUMPI DUP3 DUP8 ADD MLOAD SWAP1 POP JUMPDEST PUSH2 0xA1F DUP6 DUP3 PUSH2 0x9A1 JUMP JUMPDEST DUP7 SSTORE POP PUSH2 0xA87 JUMP JUMPDEST PUSH1 0x1F NOT DUP5 AND PUSH2 0xA35 DUP7 PUSH2 0x811 JUMP JUMPDEST PUSH1 0x0 JUMPDEST DUP3 DUP2 LT ISZERO PUSH2 0xA5D JUMPI DUP5 DUP10 ADD MLOAD DUP3 SSTORE PUSH1 0x1 DUP3 ADD SWAP2 POP PUSH1 0x20 DUP6 ADD SWAP5 POP PUSH1 0x20 DUP2 ADD SWAP1 POP PUSH2 0xA38 JUMP JUMPDEST DUP7 DUP4 LT ISZERO PUSH2 0xA7A JUMPI DUP5 DUP10 ADD MLOAD PUSH2 0xA76 PUSH1 0x1F DUP10 AND DUP3 PUSH2 0x983 JUMP JUMPDEST DUP4 SSTORE POP JUMPDEST PUSH1 0x1 PUSH1 0x2 DUP9 MUL ADD DUP9 SSTORE POP POP POP JUMPDEST POP POP POP POP POP POP JUMP JUMPDEST PUSH2 0xA98 DUP2 PUSH2 0x6B5 JUMP JUMPDEST DUP3 MSTORE POP POP JUMP JUMPDEST PUSH1 0x0 PUSH1 0x20 DUP3 ADD SWAP1 POP PUSH2 0xAB3 PUSH1 0x0 DUP4 ADD DUP5 PUSH2 0xA8F JUMP JUMPDEST SWAP3 SWAP2 POP POP JUMP JUMPDEST PUSH32 0x4E487B7100000000000000000000000000000000000000000000000000000000 PUSH1 0x0 MSTORE PUSH1 0x11 PUSH1 0x4 MSTORE PUSH1 0x24 PUSH1 0x0 REVERT JUMPDEST PUSH1 0x0 DUP2 PUSH1 0x1 SHR SWAP1 POP SWAP2 SWAP1 POP JUMP JUMPDEST PUSH1 0x0 DUP1 DUP3 SWAP2 POP DUP4 SWAP1 POP JUMPDEST PUSH1 0x1 DUP6 GT ISZERO PUSH2 0xB3F JUMPI DUP1 DUP7 DIV DUP2 GT ISZERO PUSH2 0xB1B JUMPI PUSH2 0xB1A PUSH2 0xAB9 JUMP JUMPDEST JUMPDEST PUSH1 0x1 DUP6 AND ISZERO PUSH2 0xB2A JUMPI DUP1 DUP3 MUL SWAP2 POP JUMPDEST DUP1 DUP2 MUL SWAP1 POP PUSH2 0xB38 DUP6 PUSH2 0xAE8 JUMP JUMPDEST SWAP5 POP PUSH2 0xAFF JUMP JUMPDEST SWAP5 POP SWAP5 SWAP3 POP POP POP JUMP JUMPDEST PUSH1 0x0 DUP3 PUSH2 0xB58 JUMPI PUSH1 0x1 SWAP1 POP PUSH2 0xC14 JUMP JUMPDEST DUP2 PUSH2 0xB66 JUMPI PUSH1 0x0 SWAP1 POP PUSH2 0xC14 JUMP JUMPDEST DUP2 PUSH1 0x1 DUP2 EQ PUSH2 0xB7C JUMPI PUSH1 0x2 DUP2 EQ PUSH2 0xB86 JUMPI PUSH2 0xBB5 JUMP JUMPDEST PUSH1 0x1 SWAP2 POP POP PUSH2 0xC14 JUMP JUMPDEST PUSH1 0xFF DUP5 GT ISZERO PUSH2 0xB98 JUMPI PUSH2 0xB97 PUSH2 0xAB9 JUMP JUMPDEST JUMPDEST DUP4 PUSH1 0x2 EXP SWAP2 POP DUP5 DUP3 GT ISZERO PUSH2 0xBAF JUMPI PUSH2 0xBAE PUSH2 0xAB9 JUMP JUMPDEST JUMPDEST POP PUSH2 0xC14 JUMP JUMPDEST POP PUSH1 0x20 DUP4 LT PUSH2 0x133 DUP4 LT AND PUSH1 0x4E DUP5 LT PUSH1 0xB DUP5 LT AND OR ISZERO PUSH2 0xBEA JUMPI DUP3 DUP3 EXP SWAP1 POP DUP4 DUP2 GT ISZERO PUSH2 0xBE5 JUMPI PUSH2 0xBE4 PUSH2 0xAB9 JUMP JUMPDEST JUMPDEST PUSH2 0xC14 JUMP JUMPDEST PUSH2 0xBF7 DUP5 DUP5 DUP5 PUSH1 0x1 PUSH2 0xAF5 JUMP JUMPDEST SWAP3 POP SWAP1 POP DUP2 DUP5 DIV DUP2 GT ISZERO PUSH2 0xC0E JUMPI PUSH2 0xC0D PUSH2 0xAB9 JUMP JUMPDEST JUMPDEST DUP2 DUP2 MUL SWAP1 POP JUMPDEST SWAP4 SWAP3 POP POP POP JUMP JUMPDEST PUSH1 0x0 PUSH1 0xFF DUP3 AND SWAP1 POP SWAP2 SWAP1 POP JUMP JUMPDEST PUSH1 0x0 PUSH2 0xC33 DUP3 PUSH2 0x65F JUMP JUMPDEST SWAP2 POP PUSH2 0xC3E DUP4 PUSH2 0xC1B JUMP JUMPDEST SWAP3 POP PUSH2 0xC6B PUSH32 0xFFFFFFFFFFFFFFFFFFFFFFFFFFFFFFFFFFFFFFFFFFFFFFFFFFFFFFFFFFFFFFFF DUP5 DUP5 PUSH2 0xB48 JUMP JUMPDEST SWAP1 POP SWAP3 SWAP2 POP POP JUMP JUMPDEST PUSH1 0x0 PUSH2 0xC7E DUP3 PUSH2 0x65F JUMP JUMPDEST SWAP2 POP PUSH2 0xC89 DUP4 PUSH2 0x65F JUMP JUMPDEST SWAP3 POP DUP3 DUP3 MUL PUSH2 0xC97 DUP2 PUSH2 0x65F JUMP JUMPDEST SWAP2 POP DUP3 DUP3 DIV DUP5 EQ DUP4 ISZERO OR PUSH2 0xCAE JUMPI PUSH2 0xCAD PUSH2 0xAB9 JUMP JUMPDEST JUMPDEST POP SWAP3 SWAP2 POP POP JUMP JUMPDEST PUSH1 0x0 PUSH2 0xCC0 DUP3 PUSH2 0x65F JUMP JUMPDEST SWAP2 POP PUSH2 0xCCB DUP4 PUSH2 0x65F JUMP JUMPDEST SWAP3 POP DUP3 DUP3 ADD SWAP1 POP DUP1 DUP3 GT ISZERO PUSH2 0xCE3 JUMPI PUSH2 0xCE2 PUSH2 0xAB9 JUMP JUMPDEST JUMPDEST SWAP3 SWAP2 POP POP JUMP JUMPDEST PUSH2 0xCF2 DUP2 PUSH2 0x65F JUMP JUMPDEST DUP3 MSTORE POP POP JUMP JUMPDEST PUSH1 0x0 PUSH1 0x60 DUP3 ADD SWAP1 POP PUSH2 0xD0D PUSH1 0x0 DUP4 ADD DUP7 PUSH2 0xA8F JUMP JUMPDEST PUSH2 0xD1A PUSH1 0x20 DUP4 ADD DUP6 PUSH2 0xCE9 JUMP JUMPDEST PUSH2 0xD27 PUSH1 0x40 DUP4 ADD DUP5 PUSH2 0xCE9 JUMP JUMPDEST SWAP5 SWAP4 POP POP POP POP JUMP JUMPDEST PUSH1 0x0 PUSH1 0x20 DUP3 ADD SWAP1 POP PUSH2 0xD44 PUSH1 0x0 DUP4 ADD DUP5 PUSH2 0xCE9 JUMP JUMPDEST SWAP3 SWAP2 POP POP JUMP JUMPDEST PUSH2 0x1D7A DUP1 PUSH2 0xD59 PUSH1 0x0 CODECOPY PUSH1 0x0 RETURN INVALID PUSH1 0x80 PUSH1 0x40 MSTORE CALLVALUE DUP1 ISZERO PUSH2 0x10 JUMPI PUSH1 0x0 DUP1 REVERT JUMPDEST POP PUSH1 0x4 CALLDATASIZE LT PUSH2 0x158 JUMPI PUSH1 0x0 CALLDATALOAD PUSH1 0xE0 SHR DUP1 PUSH4 0x715018A6 GT PUSH2 0xC3 JUMPI DUP1 PUSH4 0xA9059CBB GT PUSH2 0x7C JUMPI DUP1 PUSH4 0xA9059CBB EQ PUSH2 0x3A7 JUMPI DUP1 PUSH4 0xAD609646 EQ PUSH2 0x3D7 JUMPI DUP1 PUSH4 0xAF59C95F EQ PUSH2 0x3F5 JUMPI DUP1 PUSH4 0xCC1776D3 EQ PUSH2 0x425 JUMPI DUP1 PUSH4 0xDD62ED3E EQ PUSH2 0x443 JUMPI DUP1 PUSH4 0xF2FDE38B EQ PUSH2 0x473 JUMPI PUSH2 0x158 JUMP JUMPDEST DUP1 PUSH4 0x715018A6 EQ PUSH2 0x2F7 JUMPI DUP1 PUSH4 0x76DABFDB EQ PUSH2 0x301 JUMPI DUP1 PUSH4 0x7EBB640A EQ PUSH2 0x331 JUMPI DUP1 PUSH4 0x8DA5CB5B EQ PUSH2 0x34D JUMPI DUP1 PUSH4 0x95D89B41 EQ PUSH2 0x36B JUMPI DUP1 PUSH4 0xA51C9ACE EQ PUSH2 0x389 JUMPI PUSH2 0x158 JUMP JUMPDEST DUP1 PUSH4 0x23B872DD GT PUSH2 0x115 JUMPI DUP1 PUSH4 0x23B872DD EQ PUSH2 0x21F JUMPI DUP1 PUSH4 0x313CE567 EQ PUSH2 0x24F JUMPI DUP1 PUSH4 0x4F7041A5 EQ PUSH2 0x26D JUMPI DUP1 PUSH4 0x61D027B3 EQ PUSH2 0x28B JUMPI DUP1 PUSH4 0x665A11CA EQ PUSH2 0x2A9 JUMPI DUP1 PUSH4 0x70A08231 EQ PUSH2 0x2C7 JUMPI PUSH2 0x158 JUMP JUMPDEST DUP1 PUSH4 0x1877020 EQ PUSH2 0x15D JUMPI DUP1 PUSH4 0x6FDDE03 EQ PUSH2 0x179 JUMPI DUP1 PUSH4 0x7B01ADB EQ PUSH2 0x197 JUMPI DUP1 PUSH4 0x95EA7B3 EQ PUSH2 0x1B5 JUMPI DUP1 PUSH4 0x1006EE0C EQ PUSH2 0x1E5 JUMPI DUP1 PUSH4 0x18160DDD EQ PUSH2 0x201 JUMPI JUMPDEST PUSH1 0x0 DUP1 REVERT JUMPDEST PUSH2 0x177 PUSH1 0x4 DUP1 CALLDATASIZE SUB DUP2 ADD SWAP1 PUSH2 0x172 SWAP2 SWAP1 PUSH2 0x166A JUMP JUMPDEST PUSH2 0x48F JUMP JUMPDEST STOP JUMPDEST PUSH2 0x181 PUSH2 0x51E JUMP JUMPDEST PUSH1 0x40 MLOAD PUSH2 0x18E SWAP2 SWAP1 PUSH2 0x1727 JUMP JUMPDEST PUSH1 0x40 MLOAD DUP1 SWAP2 SUB SWAP1 RETURN JUMPDEST PUSH2 0x19F PUSH2 0x5B0 JUMP JUMPDEST PUSH1 0x40 MLOAD PUSH2 0x1AC SWAP2 SWAP1 PUSH2 0x1762 JUMP JUMPDEST PUSH1 0x40 MLOAD DUP1 SWAP2 SUB SWAP1 RETURN JUMPDEST PUSH2 0x1CF PUSH1 0x4 DUP1 CALLDATASIZE SUB DUP2 ADD SWAP1 PUSH2 0x1CA SWAP2 SWAP1 PUSH2 0x17A9 JUMP JUMPDEST PUSH2 0x5B6 JUMP JUMPDEST PUSH1 0x40 MLOAD PUSH2 0x1DC SWAP2 SWAP1 PUSH2 0x1804 JUMP JUMPDEST PUSH1 0x40 MLOAD DUP1 SWAP2 SUB SWAP1 RETURN JUMPDEST PUSH2 0x1FF PUSH1 0x4 DUP1 CALLDATASIZE SUB DUP2 ADD SWAP1 PUSH2 0x1FA SWAP2 SWAP1 PUSH2 0x181F JUMP JUMPDEST PUSH2 0x5D9 JUMP JUMPDEST STOP JUMPDEST PUSH2 0x209 PUSH2 0x67F JUMP JUMPDEST PUSH1 0x40 MLOAD PUSH2 0x216 SWAP2 SWAP1 PUSH2 0x1762 JUMP JUMPDEST PUSH1 0x40 MLOAD DUP1 SWAP2 SUB SWAP1 RETURN JUMPDEST PUSH2 0x239 PUSH1 0x4 DUP1 CALLDATASIZE SUB DUP2 ADD SWAP1 PUSH2 0x234 SWAP2 SWAP1 PUSH2 0x185F JUMP JUMPDEST PUSH2 0x689 JUMP JUMPDEST PUSH1 0x40 MLOAD PUSH2 0x246 SWAP2 SWAP1 PUSH2 0x1804 JUMP JUMPDEST PUSH1 0x40 MLOAD DUP1 SWAP2 SUB SWAP1 RETURN JUMPDEST PUSH2 0x257 PUSH2 0x6B8 JUMP JUMPDEST PUSH1 0x40 MLOAD PUSH2 0x264 SWAP2 SWAP1 PUSH2 0x18CE JUMP JUMPDEST PUSH1 0x40 MLOAD DUP1 SWAP2 SUB SWAP1 RETURN JUMPDEST PUSH2 0x275 PUSH2 0x6C1 JUMP JUMPDEST PUSH1 0x40 MLOAD PUSH2 0x282 SWAP2 SWAP1 PUSH2 0x1762 JUMP JUMPDEST PUSH1 0x40 MLOAD DUP1 SWAP2 SUB SWAP1 RETURN JUMPDEST PUSH2 0x293 PUSH2 0x6C7 JUMP JUMPDEST PUSH1 0x40 MLOAD PUSH2 0x2A0 SWAP2 SWAP1 PUSH2 0x18F8 JUMP JUMPDEST PUSH1 0x40 MLOAD DUP1 SWAP2 SUB SWAP1 RETURN JUMPDEST PUSH2 0x2B1 PUSH2 0x6ED JUMP JUMPDEST PUSH1 0x40 MLOAD PUSH2 0x2BE SWAP2 SWAP1 PUSH2 0x18F8 JUMP JUMPDEST PUSH1 0x40 MLOAD DUP1 SWAP2 SUB SWAP1 RETURN JUMPDEST PUSH2 0x2E1 PUSH1 0x4 DUP1 CALLDATASIZE SUB DUP2 ADD SWAP1 PUSH2 0x2DC SWAP2 SWAP1 PUSH2 0x166A JUMP JUMPDEST PUSH2 0x713 JUMP JUMPDEST PUSH1 0x40 MLOAD PUSH2 0x2EE SWAP2 SWAP1 PUSH2 0x1762 JUMP JUMPDEST PUSH1 0x40 MLOAD DUP1 SWAP2 SUB SWAP1 RETURN JUMPDEST PUSH2 0x2FF PUSH2 0x75B JUMP JUMPDEST STOP JUMPDEST PUSH2 0x31B PUSH1 0x4 DUP1 CALLDATASIZE SUB DUP2 ADD SWAP1 PUSH2 0x316 SWAP2 SWAP1 PUSH2 0x166A JUMP JUMPDEST PUSH2 0x76F JUMP JUMPDEST PUSH1 0x40 MLOAD PUSH2 0x328 SWAP2 SWAP1 PUSH2 0x1762 JUMP JUMPDEST PUSH1 0x40 MLOAD DUP1 SWAP2 SUB SWAP1 RETURN JUMPDEST PUSH2 0x34B PUSH1 0x4 DUP1 CALLDATASIZE SUB DUP2 ADD SWAP1 PUSH2 0x346 SWAP2 SWAP1 PUSH2 0x181F JUMP JUMPDEST PUSH2 0x787 JUMP JUMPDEST STOP JUMPDEST PUSH2 0x355 PUSH2 0x81F JUMP JUMPDEST PUSH1 0x40 MLOAD PUSH2 0x362 SWAP2 SWAP1 PUSH2 0x18F8 JUMP JUMPDEST PUSH1 0x40 MLOAD DUP1 SWAP2 SUB SWAP1 RETURN JUMPDEST PUSH2 0x373 PUSH2 0x849 JUMP JUMPDEST PUSH1 0x40 MLOAD PUSH2 0x380 SWAP2 SWAP1 PUSH2 0x1727 JUMP JUMPDEST PUSH1 0x40 MLOAD DUP1 SWAP2 SUB SWAP1 RETURN JUMPDEST PUSH2 0x391 PUSH2 0x8DB JUMP JUMPDEST PUSH1 0x40 MLOAD PUSH2 0x39E SWAP2 SWAP1 PUSH2 0x1762 JUMP JUMPDEST PUSH1 0x40 MLOAD DUP1 SWAP2 SUB SWAP1 RETURN JUMPDEST PUSH2 0x3C1 PUSH1 0x4 DUP1 CALLDATASIZE SUB DUP2 ADD SWAP1 PUSH2 0x3BC SWAP2 SWAP1 PUSH2 0x17A9 JUMP JUMPDEST PUSH2 0x8E1 JUMP JUMPDEST PUSH1 0x40 MLOAD PUSH2 0x3CE SWAP2 SWAP1 PUSH2 0x1804 JUMP JUMPDEST PUSH1 0x40 MLOAD DUP1 SWAP2 SUB SWAP1 RETURN JUMPDEST PUSH2 0x3DF PUSH2 0x953 JUMP JUMPDEST PUSH1 0x40 MLOAD PUSH2 0x3EC SWAP2 SWAP1 PUSH2 0x1762 JUMP JUMPDEST PUSH1 0x40 MLOAD DUP1 SWAP2 SUB SWAP1 RETURN JUMPDEST PUSH2 0x40F PUSH1 0x4 DUP1 CALLDATASIZE SUB DUP2 ADD SWAP1 PUSH2 0x40A SWAP2 SWAP1 PUSH2 0x166A JUMP JUMPDEST PUSH2 0x959 JUMP JUMPDEST PUSH1 0x40 MLOAD PUSH2 0x41C SWAP2 SWAP1 PUSH2 0x1762 JUMP JUMPDEST PUSH1 0x40 MLOAD DUP1 SWAP2 SUB SWAP1 RETURN JUMPDEST PUSH2 0x42D PUSH2 0x971 JUMP JUMPDEST PUSH1 0x40 MLOAD PUSH2 0x43A SWAP2 SWAP1 PUSH2 0x1762 JUMP JUMPDEST PUSH1 0x40 MLOAD DUP1 SWAP2 SUB SWAP1 RETURN JUMPDEST PUSH2 0x45D PUSH1 0x4 DUP1 CALLDATASIZE SUB DUP2 ADD SWAP1 PUSH2 0x458 SWAP2 SWAP1 PUSH2 0x1913 JUMP JUMPDEST PUSH2 0x977 JUMP JUMPDEST PUSH1 0x40 MLOAD PUSH2 0x46A SWAP2 SWAP1 PUSH2 0x1762 JUMP JUMPDEST PUSH1 0x40 MLOAD DUP1 SWAP2 SUB SWAP1 RETURN JUMPDEST PUSH2 0x48D PUSH1 0x4 DUP1 CALLDATASIZE SUB DUP2 ADD SWAP1 PUSH2 0x488 SWAP2 SWAP1 PUSH2 0x166A JUMP JUMPDEST PUSH2 0x9FE JUMP JUMPDEST STOP JUMPDEST PUSH2 0x497 PUSH2 0xA84 JUMP JUMPDEST DUP1 PUSH1 0x8 PUSH1 0x0 PUSH2 0x100 EXP DUP2 SLOAD DUP2 PUSH20 0xFFFFFFFFFFFFFFFFFFFFFFFFFFFFFFFFFFFFFFFF MUL NOT AND SWAP1 DUP4 PUSH20 0xFFFFFFFFFFFFFFFFFFFFFFFFFFFFFFFFFFFFFFFF AND MUL OR SWAP1 SSTORE POP DUP1 PUSH20 0xFFFFFFFFFFFFFFFFFFFFFFFFFFFFFFFFFFFFFFFF AND PUSH32 0xE57F71636571365571C0EAEAEB54E1D9E0065804F056A57A2A29448524F7D18A PUSH1 0x40 MLOAD PUSH1 0x40 MLOAD DUP1 SWAP2 SUB SWAP1 LOG2 POP JUMP JUMPDEST PUSH1 0x60 PUSH1 0x3 DUP1 SLOAD PUSH2 0x52D SWAP1 PUSH2 0x1982 JUMP JUMPDEST DUP1 PUSH1 0x1F ADD PUSH1 0x20 DUP1 SWAP2 DIV MUL PUSH1 0x20 ADD PUSH1 0x40 MLOAD SWAP1 DUP2 ADD PUSH1 0x40 MSTORE DUP1 SWAP3 SWAP2 SWAP1 DUP2 DUP2 MSTORE PUSH1 0x20 ADD DUP3 DUP1 SLOAD PUSH2 0x559 SWAP1 PUSH2 0x1982 JUMP JUMPDEST DUP1 ISZERO PUSH2 0x5A6 JUMPI DUP1 PUSH1 0x1F LT PUSH2 0x57B JUMPI PUSH2 0x100 DUP1 DUP4 SLOAD DIV MUL DUP4 MSTORE SWAP2 PUSH1 0x20 ADD SWAP2 PUSH2 0x5A6 JUMP JUMPDEST DUP3 ADD SWAP2 SWAP1 PUSH1 0x0 MSTORE PUSH1 0x20 PUSH1 0x0 KECCAK256 SWAP1 JUMPDEST DUP2 SLOAD DUP2 MSTORE SWAP1 PUSH1 0x1 ADD SWAP1 PUSH1 0x20 ADD DUP1 DUP4 GT PUSH2 0x589 JUMPI DUP3 SWAP1 SUB PUSH1 0x1F AND DUP3 ADD SWAP2 JUMPDEST POP POP POP POP POP SWAP1 POP SWAP1 JUMP JUMPDEST PUSH1 0xB SLOAD DUP2 JUMP JUMPDEST PUSH1 0x0 DUP1 PUSH2 0x5C1 PUSH2 0xB0B JUMP JUMPDEST SWAP1 POP PUSH2 0x5CE DUP2 DUP6 DUP6 PUSH2 0xB13 JUMP JUMPDEST PUSH1 0x1 SWAP2 POP POP SWAP3 SWAP2 POP POP JUMP JUMPDEST PUSH2 0x5E1 PUSH2 0xA84 JUMP JUMPDEST PUSH2 0x7D0 DUP3 GT ISZERO DUP1 ISZERO PUSH2 0x5F5 JUMPI POP PUSH2 0xBB8 DUP2 GT ISZERO JUMPDEST PUSH2 0x634 JUMPI PUSH1 0x40 MLOAD PUSH32 0x8C379A000000000000000000000000000000000000000000000000000000000 DUP2 MSTORE PUSH1 0x4 ADD PUSH2 0x62B SWAP1 PUSH2 0x19FF JUMP JUMPDEST PUSH1 0x40 MLOAD DUP1 SWAP2 SUB SWAP1 REVERT JUMPDEST DUP2 PUSH1 0x6 DUP2 SWAP1 SSTORE POP DUP1 PUSH1 0x7 DUP2 SWAP1 SSTORE POP PUSH32 0xB841FAF0D1B32571F4EF966A2F35E3AE51F3CDDA45318C3DA5570A5B2AD85605 DUP3 DUP3 PUSH1 0x40 MLOAD PUSH2 0x673 SWAP3 SWAP2 SWAP1 PUSH2 0x1A1F JUMP JUMPDEST PUSH1 0x40 MLOAD DUP1 SWAP2 SUB SWAP1 LOG1 POP POP JUMP JUMPDEST PUSH1 0x0 PUSH1 0x2 SLOAD SWAP1 POP SWAP1 JUMP JUMPDEST PUSH1 0x0 DUP1 PUSH2 0x694 PUSH2 0xB0B JUMP JUMPDEST SWAP1 POP PUSH2 0x6A1 DUP6 DUP3 DUP6 PUSH2 0xB25 JUMP JUMPDEST PUSH2 0x6AC DUP6 DUP6 DUP6 PUSH2 0xBBA JUMP JUMPDEST PUSH1 0x1 SWAP2 POP POP SWAP4 SWAP3 POP POP POP JUMP JUMPDEST PUSH1 0x0 PUSH1 0x12 SWAP1 POP SWAP1 JUMP JUMPDEST PUSH1 0x6 SLOAD DUP2 JUMP JUMPDEST PUSH1 0x9 PUSH1 0x0 SWAP1 SLOAD SWAP1 PUSH2 0x100 EXP SWAP1 DIV PUSH20 0xFFFFFFFFFFFFFFFFFFFFFFFFFFFFFFFFFFFFFFFF AND DUP2 JUMP JUMPDEST PUSH1 0x8 PUSH1 0x0 SWAP1 SLOAD SWAP1 PUSH2 0x100 EXP SWAP1 DIV PUSH20 0xFFFFFFFFFFFFFFFFFFFFFFFFFFFFFFFFFFFFFFFF AND DUP2 JUMP JUMPDEST PUSH1 0x0 DUP1 PUSH1 0x0 DUP4 PUSH20 0xFFFFFFFFFFFFFFFFFFFFFFFFFFFFFFFFFFFFFFFF AND PUSH20 0xFFFFFFFFFFFFFFFFFFFFFFFFFFFFFFFFFFFFFFFF AND DUP2 MSTORE PUSH1 0x20 ADD SWAP1 DUP2 MSTORE PUSH1 0x20 ADD PUSH1 0x0 KECCAK256 SLOAD SWAP1 POP SWAP2 SWAP1 POP JUMP JUMPDEST PUSH2 0x763 PUSH2 0xA84 JUMP JUMPDEST PUSH2 0x76D PUSH1 0x0 PUSH2 0xCAE JUMP JUMPDEST JUMP JUMPDEST PUSH1 0xC PUSH1 0x20 MSTORE DUP1 PUSH1 0x0 MSTORE PUSH1 0x40 PUSH1 0x0 KECCAK256 PUSH1 0x0 SWAP2 POP SWAP1 POP SLOAD DUP2 JUMP JUMPDEST PUSH2 0x78F PUSH2 0xA84 JUMP JUMPDEST PUSH2 0x1F4 DUP3 GT ISZERO PUSH2 0x7D4 JUMPI PUSH1 0x40 MLOAD PUSH32 0x8C379A000000000000000000000000000000000000000000000000000000000 DUP2 MSTORE PUSH1 0x4 ADD PUSH2 0x7CB SWAP1 PUSH2 0x1A94 JUMP JUMPDEST PUSH1 0x40 MLOAD DUP1 SWAP2 SUB SWAP1 REVERT JUMPDEST DUP2 PUSH1 0xA DUP2 SWAP1 SSTORE POP DUP1 PUSH1 0xB DUP2 SWAP1 SSTORE POP PUSH32 0xED166407696D0F463C315602B11865DCCA4C099E9676223521CAB7AFA90DF32 DUP3 DUP3 PUSH1 0x40 MLOAD PUSH2 0x813 SWAP3 SWAP2 SWAP1 PUSH2 0x1A1F JUMP JUMPDEST PUSH1 0x40 MLOAD DUP1 SWAP2 SUB SWAP1 LOG1 POP POP JUMP JUMPDEST PUSH1 0x0 PUSH1 0x5 PUSH1 0x0 SWAP1 SLOAD SWAP1 PUSH2 0x100 EXP SWAP1 DIV PUSH20 0xFFFFFFFFFFFFFFFFFFFFFFFFFFFFFFFFFFFFFFFF AND SWAP1 POP SWAP1 JUMP JUMPDEST PUSH1 0x60 PUSH1 0x4 DUP1 SLOAD PUSH2 0x858 SWAP1 PUSH2 0x1982 JUMP JUMPDEST DUP1 PUSH1 0x1F ADD PUSH1 0x20 DUP1 SWAP2 DIV MUL PUSH1 0x20 ADD PUSH1 0x40 MLOAD SWAP1 DUP2 ADD PUSH1 0x40 MSTORE DUP1 SWAP3 SWAP2 SWAP1 DUP2 DUP2 MSTORE PUSH1 0x20 ADD DUP3 DUP1 SLOAD PUSH2 0x884 SWAP1 PUSH2 0x1982 JUMP JUMPDEST DUP1 ISZERO PUSH2 0x8D1 JUMPI DUP1 PUSH1 0x1F LT PUSH2 0x8A6 JUMPI PUSH2 0x100 DUP1 DUP4 SLOAD DIV MUL DUP4 MSTORE SWAP2 PUSH1 0x20 ADD SWAP2 PUSH2 0x8D1 JUMP JUMPDEST DUP3 ADD SWAP2 SWAP1 PUSH1 0x0 MSTORE PUSH1 0x20 PUSH1 0x0 KECCAK256 SWAP1 JUMPDEST DUP2 SLOAD DUP2 MSTORE SWAP1 PUSH1 0x1 ADD SWAP1 PUSH1 0x20 ADD DUP1 DUP4 GT PUSH2 0x8B4 JUMPI DUP3 SWAP1 SUB PUSH1 0x1F AND DUP3 ADD SWAP2 JUMPDEST POP POP POP POP POP SWAP1 POP SWAP1 JUMP JUMPDEST PUSH2 0x2710 DUP2 JUMP JUMPDEST PUSH1 0x0 PUSH2 0x8F4 PUSH2 0x8EE PUSH2 0xB0B JUMP JUMPDEST DUP4 PUSH2 0xD74 JUMP JUMPDEST PUSH1 0x0 PUSH2 0x908 PUSH2 0x901 PUSH2 0xB0B JUMP JUMPDEST DUP6 DUP6 PUSH2 0xF9E JUMP JUMPDEST SWAP1 POP PUSH1 0x0 DUP2 DUP5 PUSH2 0x918 SWAP2 SWAP1 PUSH2 0x1AE3 JUMP JUMPDEST SWAP1 POP PUSH2 0x92C PUSH2 0x925 PUSH2 0xB0B JUMP JUMPDEST DUP7 DUP4 PUSH2 0xBBA JUMP JUMPDEST PUSH1 0x0 DUP3 GT ISZERO PUSH2 0x947 JUMPI PUSH2 0x946 DUP3 PUSH2 0x941 PUSH2 0xB0B JUMP JUMPDEST PUSH2 0x10A8 JUMP JUMPDEST JUMPDEST PUSH1 0x1 SWAP3 POP POP POP SWAP3 SWAP2 POP POP JUMP JUMPDEST PUSH1 0xA SLOAD DUP2 JUMP JUMPDEST PUSH1 0xD PUSH1 0x20 MSTORE DUP1 PUSH1 0x0 MSTORE PUSH1 0x40 PUSH1 0x0 KECCAK256 PUSH1 0x0 SWAP2 POP SWAP1 POP SLOAD DUP2 JUMP JUMPDEST PUSH1 0x7 SLOAD DUP2 JUMP JUMPDEST PUSH1 0x0 PUSH1 0x1 PUSH1 0x0 DUP5 PUSH20 0xFFFFFFFFFFFFFFFFFFFFFFFFFFFFFFFFFFFFFFFF AND PUSH20 0xFFFFFFFFFFFFFFFFFFFFFFFFFFFFFFFFFFFFFFFF AND DUP2 MSTORE PUSH1 0x20 ADD SWAP1 DUP2 MSTORE PUSH1 0x20 ADD PUSH1 0x0 KECCAK256 PUSH1 0x0 DUP4 PUSH20 0xFFFFFFFFFFFFFFFFFFFFFFFFFFFFFFFFFFFFFFFF AND PUSH20 0xFFFFFFFFFFFFFFFFFFFFFFFFFFFFFFFFFFFFFFFF AND DUP2 MSTORE PUSH1 0x20 ADD SWAP1 DUP2 MSTORE PUSH1 0x20 ADD PUSH1 0x0 KECCAK256 SLOAD SWAP1 POP SWAP3 SWAP2 POP POP JUMP JUMPDEST PUSH2 0xA06 PUSH2 0xA84 JUMP JUMPDEST PUSH1 0x0 PUSH20 0xFFFFFFFFFFFFFFFFFFFFFFFFFFFFFFFFFFFFFFFF AND DUP2 PUSH20 0xFFFFFFFFFFFFFFFFFFFFFFFFFFFFFFFFFFFFFFFF AND SUB PUSH2 0xA78 JUMPI PUSH1 0x0 PUSH1 0x40 MLOAD PUSH32 0x1E4FBDF700000000000000000000000000000000000000000000000000000000 DUP2 MSTORE PUSH1 0x4 ADD PUSH2 0xA6F SWAP2 SWAP1 PUSH2 0x18F8 JUMP JUMPDEST PUSH1 0x40 MLOAD DUP1 SWAP2 SUB SWAP1 REVERT JUMPDEST PUSH2 0xA81 DUP2 PUSH2 0xCAE JUMP JUMPDEST POP JUMP JUMPDEST PUSH2 0xA8C PUSH2 0xB0B JUMP JUMPDEST PUSH20 0xFFFFFFFFFFFFFFFFFFFFFFFFFFFFFFFFFFFFFFFF AND PUSH2 0xAAA PUSH2 0x81F JUMP JUMPDEST PUSH20 0xFFFFFFFFFFFFFFFFFFFFFFFFFFFFFFFFFFFFFFFF AND EQ PUSH2 0xB09 JUMPI PUSH2 0xACD PUSH2 0xB0B JUMP JUMPDEST PUSH1 0x40 MLOAD PUSH32 0x118CDAA700000000000000000000000000000000000000000000000000000000 DUP2 MSTORE PUSH1 0x4 ADD PUSH2 0xB00 SWAP2 SWAP1 PUSH2 0x18F8 JUMP JUMPDEST PUSH1 0x40 MLOAD DUP1 SWAP2 SUB SWAP1 REVERT JUMPDEST JUMP JUMPDEST PUSH1 0x0 CALLER SWAP1 POP SWAP1 JUMP JUMPDEST PUSH2 0xB20 DUP4 DUP4 DUP4 PUSH1 0x1 PUSH2 0x120B JUMP JUMPDEST POP POP POP JUMP JUMPDEST PUSH1 0x0 PUSH2 0xB31 DUP5 DUP5 PUSH2 0x977 JUMP JUMPDEST SWAP1 POP PUSH32 0xFFFFFFFFFFFFFFFFFFFFFFFFFFFFFFFFFFFFFFFFFFFFFFFFFFFFFFFFFFFFFFFF DUP2 LT ISZERO PUSH2 0xBB4 JUMPI DUP2 DUP2 LT ISZERO PUSH2 0xBA4 JUMPI DUP3 DUP2 DUP4 PUSH1 0x40 MLOAD PUSH32 0xFB8F41B200000000000000000000000000000000000000000000000000000000 DUP2 MSTORE PUSH1 0x4 ADD PUSH2 0xB9B SWAP4 SWAP3 SWAP2 SWAP1 PUSH2 0x1B17 JUMP JUMPDEST PUSH1 0x40 MLOAD DUP1 SWAP2 SUB SWAP1 REVERT JUMPDEST PUSH2 0xBB3 DUP5 DUP5 DUP5 DUP5 SUB PUSH1 0x0 PUSH2 0x120B JUMP JUMPDEST JUMPDEST POP POP POP POP JUMP JUMPDEST PUSH1 0x0 PUSH20 0xFFFFFFFFFFFFFFFFFFFFFFFFFFFFFFFFFFFFFFFF AND DUP4 PUSH20 0xFFFFFFFFFFFFFFFFFFFFFFFFFFFFFFFFFFFFFFFF AND SUB PUSH2 0xC2C JUMPI PUSH1 0x0 PUSH1 0x40 MLOAD PUSH32 0x96C6FD1E00000000000000000000000000000000000000000000000000000000 DUP2 MSTORE PUSH1 0x4 ADD PUSH2 0xC23 SWAP2 SWAP1 PUSH2 0x18F8 JUMP JUMPDEST PUSH1 0x40 MLOAD DUP1 SWAP2 SUB SWAP1 REVERT JUMPDEST PUSH1 0x0 PUSH20 0xFFFFFFFFFFFFFFFFFFFFFFFFFFFFFFFFFFFFFFFF AND DUP3 PUSH20 0xFFFFFFFFFFFFFFFFFFFFFFFFFFFFFFFFFFFFFFFF AND SUB PUSH2 0xC9E JUMPI PUSH1 0x0 PUSH1 0x40 MLOAD PUSH32 0xEC442F0500000000000000000000000000000000000000000000000000000000 DUP2 MSTORE PUSH1 0x4 ADD PUSH2 0xC95 SWAP2 SWAP1 PUSH2 0x18F8 JUMP JUMPDEST PUSH1 0x40 MLOAD DUP1 SWAP2 SUB SWAP1 REVERT JUMPDEST PUSH2 0xCA9 DUP4 DUP4 DUP4 PUSH2 0x13E2 JUMP JUMPDEST POP POP POP JUMP JUMPDEST PUSH1 0x0 PUSH1 0x5 PUSH1 0x0 SWAP1 SLOAD SWAP1 PUSH2 0x100 EXP SWAP1 DIV PUSH20 0xFFFFFFFFFFFFFFFFFFFFFFFFFFFFFFFFFFFFFFFF AND SWAP1 POP DUP2 PUSH1 0x5 PUSH1 0x0 PUSH2 0x100 EXP DUP2 SLOAD DUP2 PUSH20 0xFFFFFFFFFFFFFFFFFFFFFFFFFFFFFFFFFFFFFFFF MUL NOT AND SWAP1 DUP4 PUSH20 0xFFFFFFFFFFFFFFFFFFFFFFFFFFFFFFFFFFFFFFFF AND MUL OR SWAP1 SSTORE POP DUP2 PUSH20 0xFFFFFFFFFFFFFFFFFFFFFFFFFFFFFFFFFFFFFFFF AND DUP2 PUSH20 0xFFFFFFFFFFFFFFFFFFFFFFFFFFFFFFFFFFFFFFFF AND PUSH32 0x8BE0079C531659141344CD1FD0A4F28419497F9722A3DAAFE3B4186F6B6457E0 PUSH1 0x40 MLOAD PUSH1 0x40 MLOAD DUP1 SWAP2 SUB SWAP1 LOG3 POP POP JUMP JUMPDEST PUSH1 0x0 PUSH2 0x2710 PUSH1 0xA SLOAD PUSH2 0xD84 PUSH2 0x67F JUMP JUMPDEST PUSH2 0xD8E SWAP2 SWAP1 PUSH2 0x1B4E JUMP JUMPDEST PUSH2 0xD98 SWAP2 SWAP1 PUSH2 0x1BBF JUMP JUMPDEST SWAP1 POP DUP1 DUP3 GT ISZERO PUSH2 0xDDD JUMPI PUSH1 0x40 MLOAD PUSH32 0x8C379A000000000000000000000000000000000000000000000000000000000 DUP2 MSTORE PUSH1 0x4 ADD PUSH2 0xDD4 SWAP1 PUSH2 0x1C3C JUMP JUMPDEST PUSH1 0x40 MLOAD DUP1 SWAP2 SUB SWAP1 REVERT JUMPDEST PUSH1 0x0 PUSH3 0x15180 TIMESTAMP PUSH2 0xDEE SWAP2 SWAP1 PUSH2 0x1BBF JUMP JUMPDEST SWAP1 POP DUP1 PUSH1 0xD PUSH1 0x0 DUP7 PUSH20 0xFFFFFFFFFFFFFFFFFFFFFFFFFFFFFFFFFFFFFFFF AND PUSH20 0xFFFFFFFFFFFFFFFFFFFFFFFFFFFFFFFFFFFFFFFF AND DUP2 MSTORE PUSH1 0x20 ADD SWAP1 DUP2 MSTORE PUSH1 0x20 ADD PUSH1 0x0 KECCAK256 SLOAD EQ PUSH2 0xEC0 JUMPI PUSH1 0x0 PUSH1 0xC PUSH1 0x0 DUP7 PUSH20 0xFFFFFFFFFFFFFFFFFFFFFFFFFFFFFFFFFFFFFFFF AND PUSH20 0xFFFFFFFFFFFFFFFFFFFFFFFFFFFFFFFFFFFFFFFF AND DUP2 MSTORE PUSH1 0x20 ADD SWAP1 DUP2 MSTORE PUSH1 0x20 ADD PUSH1 0x0 KECCAK256 DUP2 SWAP1 SSTORE POP DUP1 PUSH1 0xD PUSH1 0x0 DUP7 PUSH20 0xFFFFFFFFFFFFFFFFFFFFFFFFFFFFFFFFFFFFFFFF AND PUSH20 0xFFFFFFFFFFFFFFFFFFFFFFFFFFFFFFFFFFFFFFFF AND DUP2 MSTORE PUSH1 0x20 ADD SWAP1 DUP2 MSTORE PUSH1 0x20 ADD PUSH1 0x0 KECCAK256 DUP2 SWAP1 SSTORE POP JUMPDEST PUSH1 0xB SLOAD PUSH1 0xC PUSH1 0x0 DUP7 PUSH20 0xFFFFFFFFFFFFFFFFFFFFFFFFFFFFFFFFFFFFFFFF AND PUSH20 0xFFFFFFFFFFFFFFFFFFFFFFFFFFFFFFFFFFFFFFFF AND DUP2 MSTORE PUSH1 0x20 ADD SWAP1 DUP2 MSTORE PUSH1 0x20 ADD PUSH1 0x0 KECCAK256 SLOAD LT PUSH2 0xF43 JUMPI PUSH1 0x40 MLOAD PUSH32 0x8C379A000000000000000000000000000000000000000000000000000000000 DUP2 MSTORE PUSH1 0x4 ADD PUSH2 0xF3A SWAP1 PUSH2 0x1CA8 JUMP JUMPDEST PUSH1 0x40 MLOAD DUP1 SWAP2 SUB SWAP1 REVERT JUMPDEST PUSH1 0xC PUSH1 0x0 DUP6 PUSH20 0xFFFFFFFFFFFFFFFFFFFFFFFFFFFFFFFFFFFFFFFF AND PUSH20 0xFFFFFFFFFFFFFFFFFFFFFFFFFFFFFFFFFFFFFFFF AND DUP2 MSTORE PUSH1 0x20 ADD SWAP1 DUP2 MSTORE PUSH1 0x20 ADD PUSH1 0x0 KECCAK256 PUSH1 0x0 DUP2 SLOAD DUP1 SWAP3 SWAP2 SWAP1 PUSH2 0xF93 SWAP1 PUSH2 0x1CC8 JUMP JUMPDEST SWAP2 SWAP1 POP SSTORE POP POP POP POP POP JUMP JUMPDEST PUSH1 0x0 DUP1 PUSH1 0x8 PUSH1 0x0 SWAP1 SLOAD SWAP1 PUSH2 0x100 EXP SWAP1 DIV PUSH20 0xFFFFFFFFFFFFFFFFFFFFFFFFFFFFFFFFFFFFFFFF AND PUSH20 0xFFFFFFFFFFFFFFFFFFFFFFFFFFFFFFFFFFFFFFFF AND DUP5 PUSH20 0xFFFFFFFFFFFFFFFFFFFFFFFFFFFFFFFFFFFFFFFF AND EQ SWAP1 POP PUSH1 0x0 PUSH1 0x8 PUSH1 0x0 SWAP1 SLOAD SWAP1 PUSH2 0x100 EXP SWAP1 DIV PUSH20 0xFFFFFFFFFFFFFFFFFFFFFFFFFFFFFFFFFFFFFFFF AND PUSH20 0xFFFFFFFFFFFFFFFFFFFFFFFFFFFFFFFFFFFFFFFF AND DUP7 PUSH20 0xFFFFFFFFFFFFFFFFFFFFFFFFFFFFFFFFFFFFFFFF AND EQ SWAP1 POP DUP2 ISZERO PUSH2 0x1071 JUMPI PUSH2 0x2710 PUSH1 0x7 SLOAD DUP6 PUSH2 0x1060 SWAP2 SWAP1 PUSH2 0x1B4E JUMP JUMPDEST PUSH2 0x106A SWAP2 SWAP1 PUSH2 0x1BBF JUMP JUMPDEST SWAP3 POP PUSH2 0x109F JUMP JUMPDEST DUP1 ISZERO PUSH2 0x1099 JUMPI PUSH2 0x2710 PUSH1 0x6 SLOAD DUP6 PUSH2 0x1088 SWAP2 SWAP1 PUSH2 0x1B4E JUMP JUMPDEST PUSH2 0x1092 SWAP2 SWAP1 PUSH2 0x1BBF JUMP JUMPDEST SWAP3 POP PUSH2 0x109E JUMP JUMPDEST PUSH1 0x0 SWAP3 POP JUMPDEST JUMPDEST POP POP SWAP4 SWAP3 POP POP POP JUMP JUMPDEST PUSH1 0x0 DUP3 SUB ISZERO PUSH2 0x1207 JUMPI PUSH1 0x0 PUSH2 0x2710 PUSH2 0x1388 DUP5 PUSH2 0x10C4 SWAP2 SWAP1 PUSH2 0x1B4E JUMP JUMPDEST PUSH2 0x10CE SWAP2 SWAP1 PUSH2 0x1BBF JUMP JUMPDEST SWAP1 POP PUSH1 0x0 DUP2 DUP5 PUSH2 0x10DE SWAP2 SWAP1 PUSH2 0x1AE3 JUMP JUMPDEST SWAP1 POP PUSH1 0x0 DUP3 GT DUP1 ISZERO PUSH2 0x113F JUMPI POP PUSH1 0x0 PUSH20 0xFFFFFFFFFFFFFFFFFFFFFFFFFFFFFFFFFFFFFFFF AND PUSH1 0x9 PUSH1 0x0 SWAP1 SLOAD SWAP1 PUSH2 0x100 EXP SWAP1 DIV PUSH20 0xFFFFFFFFFFFFFFFFFFFFFFFFFFFFFFFFFFFFFFFF AND PUSH20 0xFFFFFFFFFFFFFFFFFFFFFFFFFFFFFFFFFFFFFFFF AND EQ ISZERO JUMPDEST ISZERO PUSH2 0x1172 JUMPI PUSH2 0x1171 DUP4 PUSH1 0x9 PUSH1 0x0 SWAP1 SLOAD SWAP1 PUSH2 0x100 EXP SWAP1 DIV PUSH20 0xFFFFFFFFFFFFFFFFFFFFFFFFFFFFFFFFFFFFFFFF AND DUP5 PUSH2 0xBBA JUMP JUMPDEST JUMPDEST PUSH1 0x0 DUP2 GT DUP1 ISZERO PUSH2 0x11D1 JUMPI POP PUSH1 0x0 PUSH20 0xFFFFFFFFFFFFFFFFFFFFFFFFFFFFFFFFFFFFFFFF AND PUSH1 0x8 PUSH1 0x0 SWAP1 SLOAD SWAP1 PUSH2 0x100 EXP SWAP1 DIV PUSH20 0xFFFFFFFFFFFFFFFFFFFFFFFFFFFFFFFFFFFFFFFF AND PUSH20 0xFFFFFFFFFFFFFFFFFFFFFFFFFFFFFFFFFFFFFFFF AND EQ ISZERO JUMPDEST ISZERO PUSH2 0x1204 JUMPI PUSH2 0x1203 DUP4 PUSH1 0x8 PUSH1 0x0 SWAP1 SLOAD SWAP1 PUSH2 0x100 EXP SWAP1 DIV PUSH20 0xFFFFFFFFFFFFFFFFFFFFFFFFFFFFFFFFFFFFFFFF AND DUP4 PUSH2 0xBBA JUMP JUMPDEST JUMPDEST POP POP JUMPDEST POP POP JUMP JUMPDEST PUSH1 0x0 PUSH20 0xFFFFFFFFFFFFFFFFFFFFFFFFFFFFFFFFFFFFFFFF AND DUP5 PUSH20 0xFFFFFFFFFFFFFFFFFFFFFFFFFFFFFFFFFFFFFFFF AND SUB PUSH2 0x127D JUMPI PUSH1 0x0 PUSH1 0x40 MLOAD PUSH32 0xE602DF0500000000000000000000000000000000000000000000000000000000 DUP2 MSTORE PUSH1 0x4 ADD PUSH2 0x1274 SWAP2 SWAP1 PUSH2 0x18F8 JUMP JUMPDEST PUSH1 0x40 MLOAD DUP1 SWAP2 SUB SWAP1 REVERT JUMPDEST PUSH1 0x0 PUSH20 0xFFFFFFFFFFFFFFFFFFFFFFFFFFFFFFFFFFFFFFFF AND DUP4 PUSH20 0xFFFFFFFFFFFFFFFFFFFFFFFFFFFFFFFFFFFFFFFF AND SUB PUSH2 0x12EF JUMPI PUSH1 0x0 PUSH1 0x40 MLOAD PUSH32 0x94280D6200000000000000000000000000000000000000000000000000000000 DUP2 MSTORE PUSH1 0x4 ADD PUSH2 0x12E6 SWAP2 SWAP1 PUSH2 0x18F8 JUMP JUMPDEST PUSH1 0x40 MLOAD DUP1 SWAP2 SUB SWAP1 REVERT JUMPDEST DUP2 PUSH1 0x1 PUSH1 0x0 DUP7 PUSH20 0xFFFFFFFFFFFFFFFFFFFFFFFFFFFFFFFFFFFFFFFF AND PUSH20 0xFFFFFFFFFFFFFFFFFFFFFFFFFFFFFFFFFFFFFFFF AND DUP2 MSTORE PUSH1 0x20 ADD SWAP1 DUP2 MSTORE PUSH1 0x20 ADD PUSH1 0x0 KECCAK256 PUSH1 0x0 DUP6 PUSH20 0xFFFFFFFFFFFFFFFFFFFFFFFFFFFFFFFFFFFFFFFF AND PUSH20 0xFFFFFFFFFFFFFFFFFFFFFFFFFFFFFFFFFFFFFFFF AND DUP2 MSTORE PUSH1 0x20 ADD SWAP1 DUP2 MSTORE PUSH1 0x20 ADD PUSH1 0x0 KECCAK256 DUP2 SWAP1 SSTORE POP DUP1 ISZERO PUSH2 0x13DC JUMPI DUP3 PUSH20 0xFFFFFFFFFFFFFFFFFFFFFFFFFFFFFFFFFFFFFFFF AND DUP5 PUSH20 0xFFFFFFFFFFFFFFFFFFFFFFFFFFFFFFFFFFFFFFFF AND PUSH32 0x8C5BE1E5EBEC7D5BD14F71427D1E84F3DD0314C0F7B2291E5B200AC8C7C3B925 DUP5 PUSH1 0x40 MLOAD PUSH2 0x13D3 SWAP2 SWAP1 PUSH2 0x1762 JUMP JUMPDEST PUSH1 0x40 MLOAD DUP1 SWAP2 SUB SWAP1 LOG3 JUMPDEST POP POP POP POP JUMP JUMPDEST PUSH1 0x0 PUSH20 0xFFFFFFFFFFFFFFFFFFFFFFFFFFFFFFFFFFFFFFFF AND DUP4 PUSH20 0xFFFFFFFFFFFFFFFFFFFFFFFFFFFFFFFFFFFFFFFF AND SUB PUSH2 0x1434 JUMPI DUP1 PUSH1 0x2 PUSH1 0x0 DUP3 DUP3 SLOAD PUSH2 0x1428 SWAP2 SWAP1 PUSH2 0x1D10 JUMP JUMPDEST SWAP3 POP POP DUP2 SWAP1 SSTORE POP PUSH2 0x1507 JUMP JUMPDEST PUSH1 0x0 DUP1 PUSH1 0x0 DUP6 PUSH20 0xFFFFFFFFFFFFFFFFFFFFFFFFFFFFFFFFFFFFFFFF AND PUSH20 0xFFFFFFFFFFFFFFFFFFFFFFFFFFFFFFFFFFFFFFFF AND DUP2 MSTORE PUSH1 0x20 ADD SWAP1 DUP2 MSTORE PUSH1 0x20 ADD PUSH1 0x0 KECCAK256 SLOAD SWAP1 POP DUP2 DUP2 LT ISZERO PUSH2 0x14C0 JUMPI DUP4 DUP2 DUP4 PUSH1 0x40 MLOAD PUSH32 0xE450D38C00000000000000000000000000000000000000000000000000000000 DUP2 MSTORE PUSH1 0x4 ADD PUSH2 0x14B7 SWAP4 SWAP3 SWAP2 SWAP1 PUSH2 0x1B17 JUMP JUMPDEST PUSH1 0x40 MLOAD DUP1 SWAP2 SUB SWAP1 REVERT JUMPDEST DUP2 DUP2 SUB PUSH1 0x0 DUP1 DUP7 PUSH20 0xFFFFFFFFFFFFFFFFFFFFFFFFFFFFFFFFFFFFFFFF AND PUSH20 0xFFFFFFFFFFFFFFFFFFFFFFFFFFFFFFFFFFFFFFFF AND DUP2 MSTORE PUSH1 0x20 ADD SWAP1 DUP2 MSTORE PUSH1 0x20 ADD PUSH1 0x0 KECCAK256 DUP2 SWAP1 SSTORE POP POP JUMPDEST PUSH1 0x0 PUSH20 0xFFFFFFFFFFFFFFFFFFFFFFFFFFFFFFFFFFFFFFFF AND DUP3 PUSH20 0xFFFFFFFFFFFFFFFFFFFFFFFFFFFFFFFFFFFFFFFF AND SUB PUSH2 0x1550 JUMPI DUP1 PUSH1 0x2 PUSH1 0x0 DUP3 DUP3 SLOAD SUB SWAP3 POP POP DUP2 SWAP1 SSTORE POP PUSH2 0x159D JUMP JUMPDEST DUP1 PUSH1 0x0 DUP1 DUP5 PUSH20 0xFFFFFFFFFFFFFFFFFFFFFFFFFFFFFFFFFFFFFFFF AND PUSH20 0xFFFFFFFFFFFFFFFFFFFFFFFFFFFFFFFFFFFFFFFF AND DUP2 MSTORE PUSH1 0x20 ADD SWAP1 DUP2 MSTORE PUSH1 0x20 ADD PUSH1 0x0 KECCAK256 PUSH1 0x0 DUP3 DUP3 SLOAD ADD SWAP3 POP POP DUP2 SWAP1 SSTORE POP JUMPDEST DUP2 PUSH20 0xFFFFFFFFFFFFFFFFFFFFFFFFFFFFFFFFFFFFFFFF AND DUP4 PUSH20 0xFFFFFFFFFFFFFFFFFFFFFFFFFFFFFFFFFFFFFFFF AND PUSH32 0xDDF252AD1BE2C89B69C2B068FC378DAA952BA7F163C4A11628F55A4DF523B3EF DUP4 PUSH1 0x40 MLOAD PUSH2 0x15FA SWAP2 SWAP1 PUSH2 0x1762 JUMP JUMPDEST PUSH1 0x40 MLOAD DUP1 SWAP2 SUB SWAP1 LOG3 POP POP POP JUMP JUMPDEST PUSH1 0x0 DUP1 REVERT JUMPDEST PUSH1 0x0 PUSH20 0xFFFFFFFFFFFFFFFFFFFFFFFFFFFFFFFFFFFFFFFF DUP3 AND SWAP1 POP SWAP2 SWAP1 POP JUMP JUMPDEST PUSH1 0x0 PUSH2 0x1637 DUP3 PUSH2 0x160C JUMP JUMPDEST SWAP1 POP SWAP2 SWAP1 POP JUMP JUMPDEST PUSH2 0x1647 DUP2 PUSH2 0x162C JUMP JUMPDEST DUP2 EQ PUSH2 0x1652 JUMPI PUSH1 0x0 DUP1 REVERT JUMPDEST POP JUMP JUMPDEST PUSH1 0x0 DUP2 CALLDATALOAD SWAP1 POP PUSH2 0x1664 DUP2 PUSH2 0x163E JUMP JUMPDEST SWAP3 SWAP2 POP POP JUMP JUMPDEST PUSH1 0x0 PUSH1 0x20 DUP3 DUP5 SUB SLT ISZERO PUSH2 0x1680 JUMPI PUSH2 0x167F PUSH2 0x1607 JUMP JUMPDEST JUMPDEST PUSH1 0x0 PUSH2 0x168E DUP5 DUP3 DUP6 ADD PUSH2 0x1655 JUMP JUMPDEST SWAP2 POP POP SWAP3 SWAP2 POP POP JUMP JUMPDEST PUSH1 0x0 DUP2 MLOAD SWAP1 POP SWAP2 SWAP1 POP JUMP JUMPDEST PUSH1 0x0 DUP3 DUP3 MSTORE PUSH1 0x20 DUP3 ADD SWAP1 POP SWAP3 SWAP2 POP POP JUMP JUMPDEST PUSH1 0x0 JUMPDEST DUP4 DUP2 LT ISZERO PUSH2 0x16D1 JUMPI DUP1 DUP3 ADD MLOAD DUP2 DUP5 ADD MSTORE PUSH1 0x20 DUP2 ADD SWAP1 POP PUSH2 0x16B6 JUMP JUMPDEST PUSH1 0x0 DUP5 DUP5 ADD MSTORE POP POP POP POP JUMP JUMPDEST PUSH1 0x0 PUSH1 0x1F NOT PUSH1 0x1F DUP4 ADD AND SWAP1 POP SWAP2 SWAP1 POP JUMP JUMPDEST PUSH1 0x0 PUSH2 0x16F9 DUP3 PUSH2 0x1697 JUMP JUMPDEST PUSH2 0x1703 DUP2 DUP6 PUSH2 0x16A2 JUMP JUMPDEST SWAP4 POP PUSH2 0x1713 DUP2 DUP6 PUSH1 0x20 DUP7 ADD PUSH2 0x16B3 JUMP JUMPDEST PUSH2 0x171C DUP2 PUSH2 0x16DD JUMP JUMPDEST DUP5 ADD SWAP2 POP POP SWAP3 SWAP2 POP POP JUMP JUMPDEST PUSH1 0x0 PUSH1 0x20 DUP3 ADD SWAP1 POP DUP2 DUP2 SUB PUSH1 0x0 DUP4 ADD MSTORE PUSH2 0x1741 DUP2 DUP5 PUSH2 0x16EE JUMP JUMPDEST SWAP1 POP SWAP3 SWAP2 POP POP JUMP JUMPDEST PUSH1 0x0 DUP2 SWAP1 POP SWAP2 SWAP1 POP JUMP JUMPDEST PUSH2 0x175C DUP2 PUSH2 0x1749 JUMP JUMPDEST DUP3 MSTORE POP POP JUMP JUMPDEST PUSH1 0x0 PUSH1 0x20 DUP3 ADD SWAP1 POP PUSH2 0x1777 PUSH1 0x0 DUP4 ADD DUP5 PUSH2 0x1753 JUMP JUMPDEST SWAP3 SWAP2 POP POP JUMP JUMPDEST PUSH2 0x1786 DUP2 PUSH2 0x1749 JUMP JUMPDEST DUP2 EQ PUSH2 0x1791 JUMPI PUSH1 0x0 DUP1 REVERT JUMPDEST POP JUMP JUMPDEST PUSH1 0x0 DUP2 CALLDATALOAD SWAP1 POP PUSH2 0x17A3 DUP2 PUSH2 0x177D JUMP JUMPDEST SWAP3 SWAP2 POP POP JUMP JUMPDEST PUSH1 0x0 DUP1 PUSH1 0x40 DUP4 DUP6 SUB SLT ISZERO PUSH2 0x17C0 JUMPI PUSH2 0x17BF PUSH2 0x1607 JUMP JUMPDEST JUMPDEST PUSH1 0x0 PUSH2 0x17CE DUP6 DUP3 DUP7 ADD PUSH2 0x1655 JUMP JUMPDEST SWAP3 POP POP PUSH1 0x20 PUSH2 0x17DF DUP6 DUP3 DUP7 ADD PUSH2 0x1794 JUMP JUMPDEST SWAP2 POP POP SWAP3 POP SWAP3 SWAP1 POP JUMP JUMPDEST PUSH1 0x0 DUP2 ISZERO ISZERO SWAP1 POP SWAP2 SWAP1 POP JUMP JUMPDEST PUSH2 0x17FE DUP2 PUSH2 0x17E9 JUMP JUMPDEST DUP3 MSTORE POP POP JUMP JUMPDEST PUSH1 0x0 PUSH1 0x20 DUP3 ADD SWAP1 POP PUSH2 0x1819 PUSH1 0x0 DUP4 ADD DUP5 PUSH2 0x17F5 JUMP JUMPDEST SWAP3 SWAP2 POP POP JUMP JUMPDEST PUSH1 0x0 DUP1 PUSH1 0x40 DUP4 DUP6 SUB SLT ISZERO PUSH2 0x1836 JUMPI PUSH2 0x1835 PUSH2 0x1607 JUMP JUMPDEST JUMPDEST PUSH1 0x0 PUSH2 0x1844 DUP6 DUP3 DUP7 ADD PUSH2 0x1794 JUMP JUMPDEST SWAP3 POP POP PUSH1 0x20 PUSH2 0x1855 DUP6 DUP3 DUP7 ADD PUSH2 0x1794 JUMP JUMPDEST SWAP2 POP POP SWAP3 POP SWAP3 SWAP1 POP JUMP JUMPDEST PUSH1 0x0 DUP1 PUSH1 0x0 PUSH1 0x60 DUP5 DUP7 SUB SLT ISZERO PUSH2 0x1878 JUMPI PUSH2 0x1877 PUSH2 0x1607 JUMP JUMPDEST JUMPDEST PUSH1 0x0 PUSH2 0x1886 DUP7 DUP3 DUP8 ADD PUSH2 0x1655 JUMP JUMPDEST SWAP4 POP POP PUSH1 0x20 PUSH2 0x1897 DUP7 DUP3 DUP8 ADD PUSH2 0x1655 JUMP JUMPDEST SWAP3 POP POP PUSH1 0x40 PUSH2 0x18A8 DUP7 DUP3 DUP8 ADD PUSH2 0x1794 JUMP JUMPDEST SWAP2 POP POP SWAP3 POP SWAP3 POP SWAP3 JUMP JUMPDEST PUSH1 0x0 PUSH1 0xFF DUP3 AND SWAP1 POP SWAP2 SWAP1 POP JUMP JUMPDEST PUSH2 0x18C8 DUP2 PUSH2 0x18B2 JUMP JUMPDEST DUP3 MSTORE POP POP JUMP JUMPDEST PUSH1 0x0 PUSH1 0x20 DUP3 ADD SWAP1 POP PUSH2 0x18E3 PUSH1 0x0 DUP4 ADD DUP5 PUSH2 0x18BF JUMP JUMPDEST SWAP3 SWAP2 POP POP JUMP JUMPDEST PUSH2 0x18F2 DUP2 PUSH2 0x162C JUMP JUMPDEST DUP3 MSTORE POP POP JUMP JUMPDEST PUSH1 0x0 PUSH1 0x20 DUP3 ADD SWAP1 POP PUSH2 0x190D PUSH1 0x0 DUP4 ADD DUP5 PUSH2 0x18E9 JUMP JUMPDEST SWAP3 SWAP2 POP POP JUMP JUMPDEST PUSH1 0x0 DUP1 PUSH1 0x40 DUP4 DUP6 SUB SLT ISZERO PUSH2 0x192A JUMPI PUSH2 0x1929 PUSH2 0x1607 JUMP JUMPDEST JUMPDEST PUSH1 0x0 PUSH2 0x1938 DUP6 DUP3 DUP7 ADD PUSH2 0x1655 JUMP JUMPDEST SWAP3 POP POP PUSH1 0x20 PUSH2 0x1949 DUP6 DUP3 DUP7 ADD PUSH2 0x1655 JUMP JUMPDEST SWAP2 POP POP SWAP3 POP SWAP3 SWAP1 POP JUMP JUMPDEST PUSH32 0x4E487B7100000000000000000000000000000000000000000000000000000000 PUSH1 0x0 MSTORE PUSH1 0x22 PUSH1 0x4 MSTORE PUSH1 0x24 PUSH1 0x0 REVERT JUMPDEST PUSH1 0x0 PUSH1 0x2 DUP3 DIV SWAP1 POP PUSH1 0x1 DUP3 AND DUP1 PUSH2 0x199A JUMPI PUSH1 0x7F DUP3 AND SWAP2 POP JUMPDEST PUSH1 0x20 DUP3 LT DUP2 SUB PUSH2 0x19AD JUMPI PUSH2 0x19AC PUSH2 0x1953 JUMP JUMPDEST JUMPDEST POP SWAP2 SWAP1 POP JUMP JUMPDEST PUSH32 0x54617820746F6F20686967680000000000000000000000000000000000000000 PUSH1 0x0 DUP3 ADD MSTORE POP JUMP JUMPDEST PUSH1 0x0 PUSH2 0x19E9 PUSH1 0xC DUP4 PUSH2 0x16A2 JUMP JUMPDEST SWAP2 POP PUSH2 0x19F4 DUP3 PUSH2 0x19B3 JUMP JUMPDEST PUSH1 0x20 DUP3 ADD SWAP1 POP SWAP2 SWAP1 POP JUMP JUMPDEST PUSH1 0x0 PUSH1 0x20 DUP3 ADD SWAP1 POP DUP2 DUP2 SUB PUSH1 0x0 DUP4 ADD MSTORE PUSH2 0x1A18 DUP2 PUSH2 0x19DC JUMP JUMPDEST SWAP1 POP SWAP2 SWAP1 POP JUMP JUMPDEST PUSH1 0x0 PUSH1 0x40 DUP3 ADD SWAP1 POP PUSH2 0x1A34 PUSH1 0x0 DUP4 ADD DUP6 PUSH2 0x1753 JUMP JUMPDEST PUSH2 0x1A41 PUSH1 0x20 DUP4 ADD DUP5 PUSH2 0x1753 JUMP JUMPDEST SWAP4 SWAP3 POP POP POP JUMP JUMPDEST PUSH32 0x4D61782070657263656E7420746F6F2068696768000000000000000000000000 PUSH1 0x0 DUP3 ADD MSTORE POP JUMP JUMPDEST PUSH1 0x0 PUSH2 0x1A7E PUSH1 0x14 DUP4 PUSH2 0x16A2 JUMP JUMPDEST SWAP2 POP PUSH2 0x1A89 DUP3 PUSH2 0x1A48 JUMP JUMPDEST PUSH1 0x20 DUP3 ADD SWAP1 POP SWAP2 SWAP1 POP JUMP JUMPDEST PUSH1 0x0 PUSH1 0x20 DUP3 ADD SWAP1 POP DUP2 DUP2 SUB PUSH1 0x0 DUP4 ADD MSTORE PUSH2 0x1AAD DUP2 PUSH2 0x1A71 JUMP JUMPDEST SWAP1 POP SWAP2 SWAP1 POP JUMP JUMPDEST PUSH32 0x4E487B7100000000000000000000000000000000000000000000000000000000 PUSH1 0x0 MSTORE PUSH1 0x11 PUSH1 0x4 MSTORE PUSH1 0x24 PUSH1 0x0 REVERT JUMPDEST PUSH1 0x0 PUSH2 0x1AEE DUP3 PUSH2 0x1749 JUMP JUMPDEST SWAP2 POP PUSH2 0x1AF9 DUP4 PUSH2 0x1749 JUMP JUMPDEST SWAP3 POP DUP3 DUP3 SUB SWAP1 POP DUP2 DUP2 GT ISZERO PUSH2 0x1B11 JUMPI PUSH2 0x1B10 PUSH2 0x1AB4 JUMP JUMPDEST JUMPDEST SWAP3 SWAP2 POP POP JUMP JUMPDEST PUSH1 0x0 PUSH1 0x60 DUP3 ADD SWAP1 POP PUSH2 0x1B2C PUSH1 0x0 DUP4 ADD DUP7 PUSH2 0x18E9 JUMP JUMPDEST PUSH2 0x1B39 PUSH1 0x20 DUP4 ADD DUP6 PUSH2 0x1753 JUMP JUMPDEST PUSH2 0x1B46 PUSH1 0x40 DUP4 ADD DUP5 PUSH2 0x1753 JUMP JUMPDEST SWAP5 SWAP4 POP POP POP POP JUMP JUMPDEST PUSH1 0x0 PUSH2 0x1B59 DUP3 PUSH2 0x1749 JUMP JUMPDEST SWAP2 POP PUSH2 0x1B64 DUP4 PUSH2 0x1749 JUMP JUMPDEST SWAP3 POP DUP3 DUP3 MUL PUSH2 0x1B72 DUP2 PUSH2 0x1749 JUMP JUMPDEST SWAP2 POP DUP3 DUP3 DIV DUP5 EQ DUP4 ISZERO OR PUSH2 0x1B89 JUMPI PUSH2 0x1B88 PUSH2 0x1AB4 JUMP JUMPDEST JUMPDEST POP SWAP3 SWAP2 POP POP JUMP JUMPDEST PUSH32 0x4E487B7100000000000000000000000000000000000000000000000000000000 PUSH1 0x0 MSTORE PUSH1 0x12 PUSH1 0x4 MSTORE PUSH1 0x24 PUSH1 0x0 REVERT JUMPDEST PUSH1 0x0 PUSH2 0x1BCA DUP3 PUSH2 0x1749 JUMP JUMPDEST SWAP2 POP PUSH2 0x1BD5 DUP4 PUSH2 0x1749 JUMP JUMPDEST SWAP3 POP DUP3 PUSH2 0x1BE5 JUMPI PUSH2 0x1BE4 PUSH2 0x1B90 JUMP JUMPDEST JUMPDEST DUP3 DUP3 DIV SWAP1 POP SWAP3 SWAP2 POP POP JUMP JUMPDEST PUSH32 0x45786365656473206D6178207472616E73616374696F6E20616D6F756E740000 PUSH1 0x0 DUP3 ADD MSTORE POP JUMP JUMPDEST PUSH1 0x0 PUSH2 0x1C26 PUSH1 0x1E DUP4 PUSH2 0x16A2 JUMP JUMPDEST SWAP2 POP PUSH2 0x1C31 DUP3 PUSH2 0x1BF0 JUMP JUMPDEST PUSH1 0x20 DUP3 ADD SWAP1 POP SWAP2 SWAP1 POP JUMP JUMPDEST PUSH1 0x0 PUSH1 0x20 DUP3 ADD SWAP1 POP DUP2 DUP2 SUB PUSH1 0x0 DUP4 ADD MSTORE PUSH2 0x1C55 DUP2 PUSH2 0x1C19 JUMP JUMPDEST SWAP1 POP SWAP2 SWAP1 POP JUMP JUMPDEST PUSH32 0x45786365656473206461696C79207472616E73616374696F6E206C696D697400 PUSH1 0x0 DUP3 ADD MSTORE POP JUMP JUMPDEST PUSH1 0x0 PUSH2 0x1C92 PUSH1 0x1F DUP4 PUSH2 0x16A2 JUMP JUMPDEST SWAP2 POP PUSH2 0x1C9D DUP3 PUSH2 0x1C5C JUMP JUMPDEST PUSH1 0x20 DUP3 ADD SWAP1 POP SWAP2 SWAP1 POP JUMP JUMPDEST PUSH1 0x0 PUSH1 0x20 DUP3 ADD SWAP1 POP DUP2 DUP2 SUB PUSH1 0x0 DUP4 ADD MSTORE PUSH2 0x1CC1 DUP2 PUSH2 0x1C85 JUMP JUMPDEST SWAP1 POP SWAP2 SWAP1 POP JUMP JUMPDEST PUSH1 0x0 PUSH2 0x1CD3 DUP3 PUSH2 0x1749 JUMP JUMPDEST SWAP2 POP PUSH32 0xFFFFFFFFFFFFFFFFFFFFFFFFFFFFFFFFFFFFFFFFFFFFFFFFFFFFFFFFFFFFFFFF DUP3 SUB PUSH2 0x1D05 JUMPI PUSH2 0x1D04 PUSH2 0x1AB4 JUMP JUMPDEST JUMPDEST PUSH1 0x1 DUP3 ADD SWAP1 POP SWAP2 SWAP1 POP JUMP JUMPDEST PUSH1 0x0 PUSH2 0x1D1B DUP3 PUSH2 0x1749 JUMP JUMPDEST SWAP2 POP PUSH2 0x1D26 DUP4 PUSH2 0x1749 JUMP JUMPDEST SWAP3 POP DUP3 DUP3 ADD SWAP1 POP DUP1 DUP3 GT ISZERO PUSH2 0x1D3E JUMPI PUSH2 0x1D3D PUSH2 0x1AB4 JUMP JUMPDEST JUMPDEST SWAP3 SWAP2 POP POP JUMP INVALID LOG2 PUSH5 0x6970667358 0x22 SLT KECCAK256 SWAP2 PUSH11 0x624FCD550A696AAEA9AF8D PUSH11 0xDFD3C5AE0D87053BD058D PUSH16 0xCE38EF91D98364736F6C634300081C00 CALLER "
        },
        "methodIdentifiers": {
          "TAX_DENOMINATOR()": "a51c9ace",
          "allowance(address,address)": "dd62ed3e",
          "approve(address,uint256)": "095ea7b3",
          "balanceOf(address)": "70a08231",
          "buyTax()": "4f7041a5",
          "dailyMaxTransactions()": "07b01adb",
          "dailyTransactions(address)": "76dabfdb",
          "decimals()": "313ce567",
          "lastTransactionDay(address)": "af59c95f",
          "liquidityPool()": "665a11ca",
          "maxTransactionPercent()": "ad609646",
          "name()": "06fdde03",
          "owner()": "8da5cb5b",
          "renounceOwnership()": "715018a6",
          "sellTax()": "cc1776d3",
          "setLiquidityPool(address)": "01877020",
          "symbol()": "95d89b41",
          "totalSupply()": "18160ddd",
          "transfer(address,uint256)": "a9059cbb",
          "transferFrom(address,address,uint256)": "23b872dd",
          "transferOwnership(address)": "f2fde38b",
          "treasury()": "61d027b3",
          "updateTaxes(uint256,uint256)": "1006ee0c",
          "updateTransactionLimits(uint256,uint256)": "7ebb640a"
        }
      }
    }
  }
}